:1000000000200020F9000000790D0000790D0000AB
:10001000790D0000790D0000790D0000770D0000CA
:10002000770D0000770D0000770D0000790D0000BE
:10003000790D0000770D0000790D00007D0D0000A6
:10004000790D0000790D0000790D0000790D000098
:10005000790D0000790D0000790D0000790D000088
:10006000790D0000790D0000790D0000CD2700000A
:10007000790D0000790D0000790D0000790D000068
:1000800031150000790D000099170000790D00006E
:10009000C1190000790D0000790D0000790D0000F4
:1000A000790D0000790D0000790D0000790D000038
:1000B000790D0000790D00001106000029060000EE
:1000C0004106000059060000790D0000711C000077
:1000D000790D0000790D0000790D0000790D000008
:1000E000B90E0000090F0000910F00004D10000034
:1000F000D1100000790D00004A4B4CF2205210B58F
:100100001A804DF628121A80102223F80E2C00F0C7
:100110003DFE454B454A1A60454A5A60454B1A68B0
:1001200012F4807204D144490A604FF4A8521A6054
:10013000424B1A7802F00802D2B21AB11A7842F091
:1001400008021A7000233E4A3E483F4C02E019590B
:100150009950043399188142F9D33C4B3C4A002111
:1001600001E043F8041B9342FBD33A4B00221A6090
:10017000394B0A221A70394B24221A70A02203F834
:10018000012C374A137803F00203DBB2002BF9D0BD
:10019000334A137803F01003DBB2002BF9D1304A55
:1001A000137803F00C03082BFAD12E4B03221A709C
:1001B00040225A702A4A137803F02003DBB2002B46
:1001C000F9D0274A137803F04003DBB2002BF9D0B3
:1001D000254A264B1A60264B20221A70204A137893
:1001E00003F00C030C2BFAD1224B02221A60224A94
:1001F00043F8442C214B4BF67F321A60072243F818
:10020000042C62B600F092FF0B4B1B68DB0702D593
:100210001B4800F07BFF06F011F800F0B7FD00F07E
:10022000A2FDFEE70E20054038800440823F040016
:100230000100002B10D0034014D0034002D007402F
:1002400000E4FF1FC4E9FF1F44830000C4E9FF1F4F
:100250007CFCFF1F08ED00E0005006400140064016
:10026000064006400440064000000311448004405C
:100270000040064048800440C010050014E000E043
:10028000F51A6351FFFFFFFFFFFFFFFFFFFFFFFFB7
:10029000FFFFFFFFFFFFFFFFFFFFFFFFFFFFFFFF6E
:1002A000FFFFFFFFFFFFFFFFFFFFFFFFFFFFFFFF5E
:1002B000FFFFFFFFFFFFFFFFFFFFFFFFFFFFFFFF4E
:1002C000FFFFFFFFFFFFFFFFFFFFFFFFFFFFFFFF3E
:1002D000FFFFFFFFFFFFFFFFFFFFFFFFFFFFFFFF2E
:1002E000FFFFFFFFFFFFFFFFFFFFFFFFFFFFFFFF1E
:1002F000FFFFFFFFFFFFFFFFFFFFFFFFFFFFFFFF0E
:10030000FFFFFFFFFFFFFFFFFFFFFFFFFFFFFFFFFD
:10031000FFFFFFFFFFFFFFFFFFFFFFFFFFFFFFFFED
:10032000FFFFFFFFFFFFFFFFFFFFFFFFFFFFFFFFDD
:10033000FFFFFFFFFFFFFFFFFFFFFFFFFFFFFFFFCD
:10034000FFFFFFFFFFFFFFFFFFFFFFFFFFFFFFFFBD
:10035000FFFFFFFFFFFFFFFFFFFFFFFFFFFFFFFFAD
:10036000FFFFFFFFFFFFFFFFFFFFFFFFFFFFFFFF9D
:10037000FFFFFFFFFFFFFFFFFFFFFFFFFFFFFFFF8D
:10038000FFFFFFFFFFFFFFFFFFFFFFFFFFFFFFFF7D
:10039000FFFFFFFFFFFFFFFFFFFFFFFFFFFFFFFF6D
:1003A000FFFFFFFFFFFFFFFFFFFFFFFFFFFFFFFF5D
:1003B000FFFFFFFFFFFFFFFFFFFFFFFFFFFFFFFF4D
:1003C000FFFFFFFFFFFFFFFFFFFFFFFFFFFFFFFF3D
:1003D000FFFFFFFFFFFFFFFFFFFFFFFFFFFFFFFF2D
:1003E000FFFFFFFFFFFFFFFFFFFFFFFFFFFFFFFF1D
:1003F000FFFFFFFFFFFFFFFFFFFFFFFFFFFFFFFF0D
:10040000FFFFFFFFFFFFFFFFFFFFFFFFFEFFFFFFFD
:1004100008B54EF6C410074BC1F6FF701B1A062B29
:1004200000D808BD40F20003C0F20003002BF8D052
:100430009847F6E7C7E9FF1F08B54EF6C4104EF619
:10044000C413C1F6FF70C1F6FF731B1A9B1003EBB8
:10045000D373591000D108BD40F20002C0F200026F
:10046000002AF8D09047F6E710B54EF6C414C1F64E
:10047000FF74237873B9FFF7CBFF40F20003C0F29B
:1004800000032BB148F24430C0F20000AFF300800B
:100490000123237010BD00BF08B540F20003C0F275
:1004A00000034BB148F244304EF6C811C0F20000D0
:1004B000C1F6FF71AFF300804EF6C410C1F6FF70B5
:1004C00003682BB140F20003C0F2000303B1984768
:1004D000BDE80840FFF7B0BF10B508461446114606
:1004E00000F0A4FF204610BD084608B500F074FFD8
:1004F000012008BD00F0D8BF00F0F0BF01F006B841
:1005000000F0DEBF044B00221A711A73034A4FF445
:100510007A7199601A607047E0E9FF1F307B000034
:1005200010B508461446114601F0E6F8204610BD05
:10053000084608B501F0B6F8012008BD01F0E8B89A
:1005400001F000B901F016B901F0EEB8044B002239
:100550001A711A73034A4FF47A7199601A607047DE
:10056000F0E9FF1F507B000010B508461446114605
:1005700001F0D6F9204610BD084608B501F0A6F9ED
:10058000012008BD01F0D8B901F0F0B901F006BAB8
:1005900001F0DEB9044B00221A711A73034A4FF4BA
:1005A0007A7199601A60704700EAFF1F707B000043
:1005B0002DE9F041002407460D4626463B190A2244
:1005C00019792846002300F0B9F82B6880462E21BF
:1005D0001B682846984701344044032C0644EDD15B
:1005E0002846F9790A22002300F0A8F88019BDE80E
:1005F000F081FFFF044B054A1A6000221A715A71FC
:100600009A71DA71704700BF10EAFF1F907B0000FB
:1006100008B5034B01221A60024B1B68984708BDBE
:100620000C71034020EAFF1F08B5034B01221A603A
:10063000024B5B68984708BD1C71034020EAFF1F0E
:1006400008B5034B01221A60024B9B68984708BD0E
:100650002C71034020EAFF1F08B5034B01221A60EA
:10066000024BDB68984708BD3C71034020EAFF1F3E
:10067000054B01221A60054B1A6822F400021A6029
:10068000034B00221A707047007003403C80044006
:100690001CEAFF1F037B0122591103F01F0302FA1A
:1006A00003F3084A42F8213082680023136041783E
:1006B000054A5354D15C21B90133042BFAD1FFF719
:1006C000D7BF704780E100E018EAFF1F037810B53C
:1006D00004460BB1FFF7DEFF0023237010BD2DE9A8
:1006E000F04100258AB0074688468C682E4611E006
:1006F0002B46404601A9212200F02EFA3B68202C0F
:1007000034BF224620225B68384601A9AD18A41ADE
:1007100098473618002CEBD130460AB0BDE8F0817E
:1007200007B5054B1B88ADF80430036801A95B6869
:10073000022298470EBD00BF987B0000F0B5054629
:100740008BB022B90368C9B21B6898472CE0012A14
:1007500008BF0A2221B930228DF82520212413E078
:100760002124B1FBF2F002FB1011C9B2092901D812
:10077000303100E037310AAF3E1906F8241C01463B
:1007800010B1013CE4B2ECE733B1013C0AAAE4B297
:1007900013192D2203F8242C2B6801AF5B6828461F
:1007A0003919C4F1220298470BB0F0BD002902DAD2
:1007B00049422D2300E000230A22FFF7BFBFFFFFBD
:1007C00073B50C4B1A680092009D04461E462368C0
:1007D0002046DB68984700280ADA01F019FF3368E1
:1007E000A2680193019B5B1B9342F0D34FF0FF3053
:1007F0007CBD00BFD0EAFF1F2DE9B84707468946F8
:100800009046B3B103F1FF3A14460BE03846FFF7C8
:10081000D7FF48450AD0002802DA01233B7305E0E0
:1008200004F8010BC8EB04055545EFD300232370F2
:1008300000E01D462846BDE8B887F8B504460D46D9
:10084000002116461F4600F06AF8A268BA420FD28D
:100850002846FFF7B5FF011E02DA01232B7307E0DC
:1008600006D0B14204D02046C9B200F0D6F8EFE776
:100870002046F8BD10B50446FFF728FF204610BDFE
:1008800003480449044A0023037005F0BFBC00BFBD
:1008900030EAFF1F7508000000E4FF1F10B5044692
:1008A000006805F0FFFC204610BD38B504460D4633
:1008B0000068013106F054F910B184E821000120EC
:1008C00038BD43688B4210B5044600D306E0FFF7FD
:1008D000ECFF20B1A3680BB922681370012010BD92
:1008E000F8B504460F46154622B9036803B11A70DD
:1008F00000230BE01146FFF7E4FF064640B92068ED
:1009000010B105F0CFFC266000236360A36004E013
:10091000A5602068394606F095FC2046F8BD38B53C
:100920000023044603604360836003730D4639B1BE
:10093000084600F035FA294602462046FFF7D0FF68
:10094000204638BD38B5054600680C4660B16A6877
:100950008B689A4206D3096806F074FCA368AB6002
:1009600000230AE005F09EFC23682B6063686B603F
:10097000A368AB60002323606360A36038BD0023DD
:1009800010B504460360436083600373FFF7DAFF2A
:10099000204610BD81420B4603D009689A68FFF7D4
:1009A0009FBF7047002310B5044603604360836017
:1009B0000373FFF7EFFF204610BD884210B50446D1
:1009C00001D0FFF7BFFF204610BD38B505460C46E5
:1009D00041B1084600F0E4F9214602462846FFF7F7
:1009E0007FFF00E0A960284638BD70B504460E467A
:1009F00085685AB155192946FFF763FF30B1206861
:100A0000A3683146C01806F01DFCA560204670BDE5
:100A10000B4609689A68FFF7E8BF13B50023044640
:100A20008DF80410012201A98DF80530FFF7DDFFD4
:100A300020461CBD1FB504460A22084601A900F045
:100A4000D5F901A800F0ACF901A902462046FFF74C
:100A5000CCFF204604B010BD0B4610B509689A685B
:100A60000446FFF7C2FF204610BD10B50446FFF74D
:100A7000D4FF204610BD10B50446FFF7DBFF20462B
:100A800010BD03680A680BB15AB905E022B1896844
:100A900011B11078404270473BB1806830B118788E
:100AA00070471846114606F0DFBA1846704708B579
:100AB00082688B689A4206D1FFF7E3FFD0F101000C
:100AC00038BF002008BD002008BD8842F8B514D00A
:100AD00083688A68934212D17BB106680D6800244E
:100AE00008E006F045FD0746285D06F041FD0134AB
:100AF000874204D1305D0028F3D10120F8BD0020E9
:100B0000F8BD10B58B688468E41AA2420CD800685E
:100B100068B1096851B180181A4606F0F1FBD0F1AE
:100B2000010038BF002010BD002010BD084610BDD8
:100B300082688B689A4202D30022FFF7E2BF00204E
:100B400070478368994203D2006810B1405C7047D7
:100B500000207047FFF7F5BF38B50C469AB191B148
:100B600081688B4202D30023237038BDCD1A013A2D
:100B70000168954228BF1546C91820462A4606F046
:100B800015FC0023635538BD83689A4210B506D220
:100B90000468A01806F0E8F908B1001B10BD4FF07A
:100BA000FF3010BD0022FFF7EFBF9A42F8B50446B0
:100BB0000D4602D911461A460B460020A060AE68C9
:100BC0002060B242606020730CD8B34238BF1E462A
:100BD0002B689F5D9855296820468918FFF7F5FE18
:100BE0002B689F552046F8BD10B58B680446FFF76B
:100BF000DCFF204610BD036810B543B103E08C4212
:100C000008BF03F8012C13F8014B002CF7D110BDDD
:100C1000006808B105F000BB7047FFFF1C4B602265
:100C20001A70E1225A701B4B1B4A19781B4B08297A
:100C300001D1012102E00A2903D1392111601322D7
:100C400006E00C2901D1352100E03D21116012227E
:100C50001A60134B1A78134B02B101221A60124B1F
:100C60001A78124B012A01D880220CE0042A01D8FC
:100C7000842208E0082A01D8852204E0102A01D83D
:100C8000862200E087221A60094B01221A70704701
:100C90000040074004E4FF1F08B003400CB00340CD
:100CA00045EAFF1F20B0034005E4FF1F24B00340C6
:100CB00044EAFF1F024A1378DB07FCD5704700BFE8
:100CC0000100024030B5194B85B06C4603F11005A8
:100CD00018685968224603C20833AB421446F7D15C
:100CE000134B1B7803F00203DBB2BBB1114B802224
:100CF0001A7033221A710322DA7072B60E4C6B46E8
:100D000043F001032046984762B6237813F070033E
:100D100004D0237008E0013B03D105E0044944F608
:100D200021630A78D207F6D505B030BD9A7B000062
:100D3000010002400700024000000240B0F5006FD1
:100D400003D200F1A0500078704700207047B0F542
:100D5000006F07D200F1A05003788B4202D00170DF
:100D6000FFF7A8BF704708B504F0B6F804F0E6F93D
:100D700001F04EFCFAE7FEE7FEE7FFFF024B1A68C0
:100D800001321A60704700BFD0EAFF1F7047FFFFB3
:100D9000024A1368181810601846704708E4FF1FCD
:100DA000002300E00133C25C002AFBD118467047E3
:100DB00010B50023B0FBF2F402FB1400092801D89F
:100DC000303000E03730C85420460CB10133F1E731
:100DD000CA185470224605E0885CCC5C8C54C85418
:100DE0000132013B9A42F7DB084610BD031E10B5E5
:100DF0000C4603DBBDE81040FFF7DABF2D2001F8F9
:100E0000010B5842FFF7D4FF204610BD084B4FF4AA
:100E100080721A604FF400721A604FF480621A6098
:100E20004FF400621A604FF480521A60704700BF9E
:100E300004E100E0212830B521D8042A1FD8DFE8DA
:100E400002F00709050B03000B2306E00A2304E068
:100E5000082302E00C2300E00923094A02EBC00248
:100E6000526872B61468074D24F47024146044F07C
:100E7000807444EA034345F82010136062B630BD25
:100E8000AC7B000048EAFF1F094B03EBC0035B6823
:100E900072B61A6822F0877222F4803242F08072B1
:100EA0001A60044B002243F8202062B6704700BF4E
:100EB000AC7B000048EAFF1F114B10B51C68E00432
:100EC0001C6004D50F4BDA680AB1DB689847A104AF
:100ED00004D50C4B1A690AB11B699847A20604D5C0
:100EE000084B1A6E0AB11B6E9847E30606D5054BF0
:100EF000D3F8842012B1D3F88430984710BD00BFD6
:100F0000A090044048EAFF1F1F4B10B51C68E00387
:100F10001C6004D51D4B1A680AB11B689847A103D1
:100F200004D51A4B5A680AB15B689847E20704D5A2
:100F3000164B1A6C0AB11B6C9847A30704D5134BC8
:100F40005A6C0AB15B6C9847200704D50F4B9A6C1A
:100F50000AB19B6C9847610704D50C4BDA6C0AB157
:100F6000DB6C9847220304D5084B5A6E0AB15B6EBE
:100F70009847630306D5054BD3F8802012B1D3F808
:100F80008030984710BD00BFA0A0044048EAFF1F72
:100F90002C4B10B51C6820071C6004D52A4B5A6ADC
:100FA0000AB15B6A9847E10604D5274B9A6A0AB1F1
:100FB0009B6A9847620604D5234BDA6A0AB1DB6A5A
:100FC0009847230604D5204B1A6B0AB11B6B984730
:100FD000A00604D51C4B5A6B0AB15B6B9847E1071E
:100FE00004D5194BDA6B0AB1DB6B9847A20704D51D
:100FF000154B9A6D0AB19B6D9847630704D5124B48
:10100000DA6D0AB1DB6D9847A00504D50E4BDA6E98
:101010000AB1DB6E9847E10504D50B4B1A6F0AB194
:101020001B6F9847620504D5074B5A6F0AB15B6F77
:101030009847230504D5044B9A6F0AB19B6F9847D4
:1010400010BD00BFA0B0044048EAFF1F1E4B10B502
:101050001C68E0071C6004D51C4B9A680AB19B68A9
:101060009847210604D5194B5A690AB15B6998471C
:10107000E20604D5154B9A690AB19B699847630744
:1010800004D5124BDA690AB1DB699847200704D509
:101090000E4B1A6A0AB11B6A9847A10704D50B4B7D
:1010A0009A6B0AB19B6B9847A20604D5074B1A6D41
:1010B0000AB11B6D9847630604D5044B5A6D0AB1FB
:1010C0005B6D984710BD00BFA0C0044048EAFF1FF9
:1010D000094B10B51C68A2071C6004D5074B9A6E1B
:1010E0000AB19B6E9847E30704D5044BDA6F0AB147
:1010F000DB6F984710BD00BFA0D0044048EAFF1F37
:10110000014B1868704700BF00D00340044B0549ED
:1011100000221A600A60044A106010221A607047A8
:1011200014D0034004D0034000D0034010B5FFF7B3
:101130006DFE114B114A124C00204BF6FF711860E6
:101140005960282313609360136193611362936263
:1011500013639363092222600A4C20600A480160ED
:101160000A490B608B600A4B1A60FFF757FDBDE818
:10117000104001F093B800BF048003400C8003408E
:101180000080034004900340089003400C9003400B
:1011900000900340212810B518D80D4A52F830307D
:1011A00093F880423CB1012211B183F8802010BD38
:1011B00083F8002110BD02EBC00043681A6811B12A
:1011C00042F0030201E022F002021A6010BD00BFEB
:1011D000AC7B0000212805D8034B53F8303093F83E
:1011E0000002704700207047AC7B0000212816D811
:1011F0000B4A02EBC00301295B6852F8302004D18E
:1012000082F880124FF4A27208E0002082F8800277
:1012100011B94FF4807201E040F203121A60704776
:10122000AC7B000038B53B4B1A78012500290446F9
:1012300005FA02F301DC002102E0994205D32946B8
:10124000FFF7A8FF204629465FE00338C3B2012B11
:1012500094BF314B314B1B6801334B4323FA02F3EC
:10126000142849D8DFE800F00B11171D484823293E
:101270004848484848484848482F353B4100284A94
:1012800013604FF45172274B34E0274A13604FF438
:101290005172264B2EE0264A136040F24442254B01
:1012A00028E0254A136040F24442244B22E0244ABD
:1012B000136040F24442234B1CE0234A136040F287
:1012C0004442224B16E0224A136040F24442214B32
:1012D00010E0214A136040F24442204B0AE0204AC9
:1012E000136040F244421F4B04E01F4A13601F4B3F
:1012F00040F244421A6038BD7F292046D4BF002105
:101300000121FFF747FF20460121BDE83840FFF7E4
:101310006DBF00BF0CE4FF1F08900340088003402E
:1013200010900340309004401890034034900440E3
:10133000488003401CC004403080034010C004407B
:10134000208003400CB004402880034010B00440CB
:101350003880034014C004404080034018C004405B
:101360001080034004B004401880034008B00440DB
:1013700072B60B4B0B491A680B4B1B68096862B6B7
:10138000490102D5322A88BF0133C2F53B427F3280
:101390003021B2FBF1F24FF47A7000FB032070476A
:1013A00018E000E004ED00E0D0EAFF1F70B504464D
:1013B000FFF7DEFF05466CB140F2E736FFF7D8FFD6
:1013C000401BB04203D9013C04D005F57A7501F009
:1013D0001FF9F3E770BDFFFF0E4B1B685A0570B590
:1013E000064616D50C4B0D4D1C7801343F2C88BF9A
:1013F000002401E001F00CF92B78A342FAD0084B4D
:101400001E55084B01221A70034B1C70064BBC2260
:101410001A7070BD3480044058EBFF1F57EBFF1F5C
:10142000D6EAFF1FD4EAFF1F03A00640184B1B6833
:101430002DE9F0478A465905064627D50546154F3A
:10144000DFF860801BE03C7898F8009001343F2C76
:1014500088BF0024A14508D015F8012B0E4B1A5562
:101460000E4B01221A703C7009E00D4BBC221A7021
:1014700001F0CEF898F800304B45F9D0ECE706EBD8
:101480000A039D42DFD3064BBC221A70BDE8F087E9
:101490003480044058EBFF1FD6EAFF1FD4EAFF1F39
:1014A00003A0064057EBFF1F10B5044C01E001F00C
:1014B000AFF82378002BFAD110BD00BFD4EAFF1F8C
:1014C000044B1878044B1B78984238BF4030C01A40
:1014D000704700BF56EBFF1FD5EAFF1F084B094AB4
:1014E00019781378994208D00133DBB23F2B88BFBB
:1014F00000230549C85C137070474FF0FF307047F8
:1015000056EBFF1FD5EAFF1F16EBFF1F054B1A789E
:10151000054B1B789A4202D0044AD05C70474FF0CA
:10152000FF30704756EBFF1FD5EAFF1F16EBFF1F7A
:10153000F0B52F4B1B7813F0300F21D072B62D4B26
:10154000197831B90F3B40221B782B4B1A7062B6C9
:1015500016E062B6294B2A4C1A782A4B2A4D187885
:10156000531CDBB23F2B88BF0023267883421CBF6D
:10157000EE541A46013911F0FF01F1D11F4B1A70D8
:10158000224B1B7819465BB2002B20DA184A1378DD
:1015900018061CD51E4B1F4E1F781F4B184D1B786D
:1015A0001E4CBB420AD00133DBB23F2B88BF002365
:1015B0001078F05C287020780728F2D9164A13704A
:1015C0000B4B1B781B0602D5104B7C221A7001F0C6
:1015D0004003DBB25BB1064B1B7803F04003DBB288
:1015E0002BB10F4B00221A70084B3C221A70F0BD31
:1015F00004A0064016A0064011A0064056EBFF1FAF
:1016000007A00640D5EAFF1F16EBFF1F03A0064008
:1016100058EBFF1FD6EAFF1F57EBFF1F14A0064031
:10162000D4EAFF1F154B1A6842F400621A60144A8C
:1016300000231370134A1370134A1370134A137064
:10164000134A1370134A40F2133111604FF4517171
:101650005160114AC0F344311170C0F3471100F0DA
:101660001F0051709072937013740C4B2C221A70DF
:101670000B4B4FF480221A60704700BF3480044047
:10168000C3EBFF1F5AEBFF1FC5EBFF1FC4EBFF1F90
:1016900059EBFF1F0CB0044000B0064003B00640F9
:1016A00000E100E00E4B1B681A0570B5064616D522
:1016B0000C4B0D4D1C780134272C88BF002401E011
:1016C00000F0A6FF2B78A342FAD0084B1E55084B1A
:1016D00001221A70034B1C70064BAC221A7070BDAD
:1016E00034800440C5EBFF1FC4EBFF1F5BEBFF1F03
:1016F00059EBFF1F03B0064038B54518044603E018
:1017000014F8010BFFF7CEFFAC42F9D138BDFFFF53
:1017100010B5044C01E000F07BFF2378002BFAD1D8
:1017200010BD00BF59EBFF1F044B1878044B1B780A
:10173000984238BF4030C01A704700BFC3EBFF1F4C
:101740005AEBFF1F084B094A19781378994208D0C1
:101750000133DBB23F2B88BF00230549C85C1370FF
:1017600070474FF0FF307047C3EBFF1F5AEBFF1F6E
:1017700083EBFF1F054B1A78054B1B789A4202D06A
:10178000044AD05C70474FF0FF307047C3EBFF1F37
:101790005AEBFF1F83EBFF1F10B5224B1B7803F0A2
:1017A0002003DBB27BB1204B204A18781378204904
:1017B0000133DBB209783F2B88BF00238B4202D074
:1017C0001C49C85413701C490B7818465BB2002B97
:1017D00016DA144B1B781B0612D5184B184A1C78C6
:1017E00013789C4202D16C230B7009E00133DBB209
:1017F000272B88BF00231349CC5C0B490C70137056
:1018000000F04003DBB25BB1064B1B7803F04003F2
:10181000DBB22BB10C4B00221A70074B2C221A7032
:1018200010BD00BF04B0064007B00640C3EBFF1F69
:101830005AEBFF1F83EBFF1F03B00640C5EBFF1FF2
:10184000C4EBFF1F5BEBFF1F59EBFF1F154B1A6823
:1018500042F480521A60144A00231370134A137022
:10186000134A1370134A1370134A1370134A40F249
:10187000133111604FF451715160114AC0F344317A
:101880001170C0F3471100F01F00517090729370F7
:1018900013740C4B2C221A700B4B4FF480121A60ED
:1018A000704700BF3480044030ECFF1FC7EBFF1FC0
:1018B00032ECFF1F31ECFF1FC6EBFF1F08C00440D6
:1018C00000C0064003C0064000E100E00E4B1B686C
:1018D000DA0470B5064616D50C4B0D4D1C78013454
:1018E000272C88BF002401E000F092FE2B78A34251
:1018F000FAD0084B1E55084B01221A70034B1C707E
:10190000064BAC221A7070BD3480044032ECFF1FCD
:1019100031ECFF1FC8EBFF1FC6EBFF1F03C00640E3
:1019200038B54518044603E014F8010BFFF7CEFF65
:10193000AC42F9D138BDFFFF10B5044C01E000F016
:1019400067FE2378002BFAD110BD00BFC6EBFF1F46
:10195000044B1878044B1B78984238BF4030C01AAB
:10196000704700BF30ECFF1FC7EBFF1F084B094A51
:1019700019781378994208D00133DBB23F2B88BF26
:1019800000230549C85C137070474FF0FF30704763
:1019900030ECFF1FC7EBFF1FF0EBFF1F054B1A7862
:1019A000054B1B789A4202D0044AD05C70474FF036
:1019B000FF30704730ECFF1FC7EBFF1FF0EBFF1F3E
:1019C00010B5224B1B7803F02003DBB27BB1204B18
:1019D000204A1878137820490133DBB209783F2B6D
:1019E00088BF00238B4202D01C49C85413701C4985
:1019F0000B7818465BB2002B16DA144B1B781B06CB
:101A000012D5184B184A1C7813789C4202D16C23CB
:101A10000B7009E00133DBB2272B88BF0023134989
:101A2000CC5C0B490C70137000F04003DBB25BB16F
:101A3000064B1B7803F04003DBB22BB10C4B0022AA
:101A40001A70074B2C221A7010BD00BF04C006404C
:101A500007C0064030ECFF1FC7EBFF1FF0EBFF1F76
:101A600003C0064032ECFF1F31ECFF1FC8EBFF1F25
:101A7000C6EBFF1F1FB572B6124B70221A70124AC6
:101A8000412111700F2102F8011C80221A701A786E
:101A90001206FCD562B60D4B01A918680A22FFF7A1
:101AA00087F90B48002301AA9A5C2AB100EB430195
:101AB00001330A2B4A80F6D10133054A5B001370CB
:101AC00005B000BD000002400700024008000240CF
:101AD00096E4FF1FF0B50C4B0C4C1A7842F002054F
:101AE00004EBC50682F00102706009481A7006789E
:101AF000002E0CBF8827C82747EA014186F001065F
:101B000044F835100670F0BD9CECFF1F00E0FF1F8D
:101B100014EDFF1F431E032B10B510D872B6094AEF
:101B200052F8230010B1416842F82310064A018898
:101B300032F81340611A22F8131062B610BD00206B
:101B400010BD00BF8CECFF1F68FCFF1F013803288D
:101B50000BD8074B53F8203072B6002001E05B68C9
:101B60000130002BFBD162B670470020704700BFE8
:101B7000E0ECFF1F70B572B6184E194C01239A198C
:101B800012F8012C02F00802D2B2E2B19900144A14
:101B900054F831502DB902EB431308305860114B03
:101BA00009E041F0010154F8315065B902EBC1037D
:101BB000083058600C4B42F831300C4B1A78013A1F
:101BC0001A7062B670BD0133052BD8D162B6074BCF
:101BD00000221A70BDE8704000F0E4BBBC7C00003D
:101BE00000E0FF1F88004000C80040000AEDFF1F12
:101BF000431E032B30B532D84001194A40F0100083
:101C0000101872B6174CE25C032A09D8DFE802F01C
:101C1000160218050830022213E00830042210E0F2
:101C20001148124A50F8234014B940F8231002E03A
:101C300052F82300416042F823100FE0032200E035
:101C40000522E25410F0080F01F108030A884360EE
:101C50000CBF8823C82343EA0243036062B630BD49
:101C600000E0FF1F48ECFF1FE0ECFF1FF0ECFF1F40
:101C70002DE9F74FA34EA44C357805F00403DBB2F1
:101C8000ABB1A24B1B7883B1A14A137823B1013BBE
:101C9000DBB2137003B900BE9E4A13782BB1013B2F
:101CA000DBB213700BB900F091FC0423337005F024
:101CB0000802D2B2002A00F07B82974B1B781D09E4
:101CC0004FEA930940F0F98104EBC903586854F8CE
:101CD0003930C3F38303013B0C2B00F2EB81DFE8C7
:101CE00013F0A401A401E901E901E901E901E90115
:101CF000E901C001E901E901E9010D004368874AF2
:101D000001685360864B874844F83930864D11602E
:101D1000002303600120287089B240F28165A94246
:101D20002361A36119D8B1F5D06F80F02881B1F596
:101D3000817F00F0D88006D8802900F0BE808229FB
:101D400040F03981BDE040F20230814200F008816C
:101D5000B1F5A06F40F02F8131E1B1F5106F10D0D7
:101D600004D8B1F5086F40F02681A0E042F22100CE
:101D7000814200F0578100F50070814240F01B81E4
:101D800015E19278614B604D1A702B6A180603D5E5
:101D9000686A083800F006FB644A08359542F4D1B9
:101DA000DFF8B091DFF8B0B10025A846CA4655F873
:101DB000090005E04368009300F0F4FA009B184620
:101DC0000028F7D15A4B4AF8050045F80B00E858AF
:101DD00007E042680093019200F0E4FA019A009B48
:101DE00010460028F5D15851524BE850524B23F879
:101DF0001800524B18F80320023A032A08D8DFE8EB
:101E000002F002040204002200E0012203F808208C
:101E100008F101080435B8F1040FC8D1484BDFF8C8
:101E20003C9100221A7001259846464B05EB0902A9
:101E3000EB1812F8012C9B001A7002F00802D2B2C3
:101E40003AB300F091FAAB0038B104EB4512083018
:101E500050603D4A44F8332006E044F8330098F8D7
:101E60000030013388F8003000F07EFAAB0043F018
:101E7000010338B104EBC30208305060284A44F82B
:101E8000332006E044F8330098F80030013388F836
:101E90000030AA0042F00201013542F003020023A3
:101EA000052D44F8313044F83230BED187E0174B6D
:101EB000264D1B782B70034684E0244D2B706B70ED
:101EC0007FE09288042A00D975E0204D2B706B705A
:101ED0001F4B9200D3181B7803F00203DBB2002BD8
:101EE0006FD028706DE0918801F07F03042B62DCD5
:101EF000538803B15FE0164A89008A18117821F0EF
:101F0000020156E08020074000E0FF1F13EDFF1F95
:101F10009DECFF1F28EDFF1F9020074000EDFF1FE5
:101F2000C800400034ECFF1F14EDFF1F68E0FF1FE6
:101F3000E0ECFF1FF0ECFF1F68FCFF1F48ECFF1FE9
:101F40000AEDFF1F30C80110880040000BEDFF1F95
:101F5000C02007408CECFF1F38ECFF1FBC7C00004A
:101F6000918801F07F03042B25DC538803B122E024
:101F7000A04A89008A18117841F0020119E05188BD
:101F80009D4B928853F8085CA3F10C009DB133F887
:101F90000CCC8C4509D133F80ACC944505D1090AFB
:101FA00003290CBF2B7803890CE00C33EAE7917806
:101FB000924A117003E08F4B0F221A7032E01D46D7
:101FC00000E002238E4AB2F806904B4538BF99468E
:101FD000B9F1400F34BFC8464FF04008284641468B
:101FE000FFF778FDB9EB0809454403D1B8F1400F7C
:101FF00007D017E0B9F1400F34BFC8464FF0400892
:1020000000E0C84628464146FFF764FDB9EB0809E1
:10201000454402D1B8F1400F04D17A4B7A4A1D6091
:10202000A2F800900122794B43E0754B1A8842F2E6
:1020300021039A4211D1764A0023C15C995401339D
:10204000072BFAD1724B1B68862B02D1714B0F22E2
:102050001A7000200146FFF73DFD6F4B44F8393000
:1020600028E0684BD3F80080B8F1000F18D0DFF8F3
:102070009891B9F800A0BAF1400F34BF55464025F9
:1020800040462946FFF726FDC5EB0A039BB2A9F897
:1020900000300BB9402D01D108EB0503594A1360FC
:1020A000574B1A88B2F5A06F04D100225A709A7863
:1020B0005A4B1A700122554B6DE004EBC90803F02E
:1020C0000803D8F80420013DD9B2A2F10800EDB20E
:1020D000002937D000F066F95148524B50F82510CE
:1020E000F1B14A6840F8252001F10802C8F804203F
:1020F0005A5D032A0BD8DFE802F002040608032227
:1021000004E0022202E0052200E004225A5518F001
:10211000080F0A880CBF8823C82343EA024342E021
:102120005A5D032A07D8DFE802F04040020400228B
:1021300006E0012204E018F0080F0CBF022203227F
:102140005A5532E054F839301B0C22F8083C23B3BE
:1021500022F8061C42F8041C334A344952F8257010
:1021600017B942F8250002E051F825205060304AA6
:1021700041F8250032F815105B1822F8153000F0F0
:10218000F3F818B10830C8F8040006E0294B44F809
:1021900039001A7801321A7007E01F4B264A18F0EE
:1021A000080F08BF134644F839300823337063E53D
:1021B000E90751D515492048204C02230B70204BCC
:1021C0001A70204B186098601F481A61D8609A6195
:1021D0005C60084B0D2018701C48FF23037000F84A
:1021E000083C02741A4A13701A4B9F221A7001237A
:1021F0000B704AE0C0200740CC7C000038EDFF1F88
:1022000000EDFF1F34ECFF1F08EDFF1F9420074077
:1022100070FCFF1F9DECFF1FC80040009820074086
:10222000E0ECFF1F48ECFF1F8CECFF1F38ECFF1F9A
:1022300068FCFF1F0AEDFF1F880040004CECFF1FE9
:102240009CECFF1F00E0FF1FA0ECFF1F8820074051
:102250008C200740842007402B0605D50C4B0D220F
:102260001A70802203F8402C05F00203DBB22BB178
:10227000084B1A781A70022203F8082C05F0100592
:10228000EDB215B1044B10221A70BDE8FE8F00BFED
:10229000C0200740882007408020074008B5FFF78E
:1022A000E9FB00231B491A465A50C8180833882BEB
:1022B0004260F9D1184B1A6842F480221A60174B19
:1022C00080221A701978154A0906FBD4114B14495B
:1022D000C3F307200870C3F307401B0E08750B7685
:1022E000FF2301F81C3C01F8143C01F88C3C1378E6
:1022F00043F0400313700021012302F8783C02F8F8
:102300000C1C02F8883C074B08221A60064B10226E
:102310001A7008BD00E0FF1F348004400C21074004
:102320009C20074004E100E00821074008461146D0
:1023300000F0AEB8084600F013B900F01BB900F089
:102340007BB800F051B800F095B8FFFF044B0022B5
:102350001A711A73034A4FF47A7199601A607047C0
:1023600018EDFF1F207D000072B60C4A1168B1FA0B
:1023700081F30B2B02D962B6002070474FF000406A
:1023800020FA03F021EA0001116062B604494822F4
:102390005343C8180022CA5042607047ACE4FF1F84
:1023A000A0E0FF1F0C4B4822C31AB3FBF2F30B2B28
:1023B00011D80A4A127822B1094A12780AB1FFF7F5
:1023C000D9BB72B6074A4FF0004121FA03F31168F6
:1023D0001943116062B67047A0E0FF1F0AEDFF1FAE
:1023E00013EDFF1FACE4FF1F38B5114C23684BB150
:1023F0000F4D28684288811801320C7A01888A4280
:1024000012D30CE00B4B1B7813B94FF0FF340CE0E8
:102410000320FFF77FFB20600028E9D1F5E7FFF7F5
:10242000C1FF00232B6000E04280204638BD00BF82
:1024300034EDFF1F13EDFF1F10B50C4C23681BB1CB
:102440000A4B1B686BB902E0094B1B7813B94FF0BC
:10245000FF3010BD0320FFF75DFB20600028EFD1A7
:10246000F5E75A889B18187A10BD00BF34EDFF1F9E
:1024700013EDFF1F044B9888044B1B681BB11A888F
:102480005B88D31AC018704768FCFF1F34EDFF1F2C
:102490002DE9F8432D4B2E4DDFF8C08001220C466C
:1024A0001A7006464BE02B682BBBDFF8A09047F272
:1024B000095798F8003013B9244A137014E0042027
:1024C000FFF744FB072808D8012389F80030FFF7FD
:1024D0004BFF286078B989F80000013F1D4B01D0FF
:1024E0001A782AB101221A704FF0FF30BDE8F88344
:1024F00000F08EF8DDE72968164A4888002313703B
:10250000C0F14002944238BF224600F1080780180B
:10251000CF194880A41A02E0F05CF85401339342CA
:10252000FAD1F6184B883F2B06D940230B800420A4
:10253000FFF75EFB00232B60074B05221A70002C6F
:10254000B1D1024B20461C70BDE8F88329EDFF1F76
:102550002CEDFF1F30EDFF1F28EDFF1F13EDFF1FB8
:1025600007B502AB012103F8010D1846FFF790FFF4
:102570000EBDFFFFF8B5114B1B78EBB1104E114BA0
:102580003468114D01271F704CB1638800272F70EC
:10259000042023802146FFF72BFB376009E0FFF77B
:1025A000E3FE014620B104202C70FFF721FB00E080
:1025B0002F70044B00221A70F8BD00BF13EDFF1FEF
:1025C0002CEDFF1F29EDFF1F28EDFF1F38B50D4B28
:1025D0001D78ADB90C4C216831B14B8804200B80BB
:1025E000FFF706FB256038BDFFF7BEFE014620B1B0
:1025F0000420BDE83840FFF7FBBA044B01221A70F3
:1026000038BD00BF29EDFF1F2CEDFF1F28EDFF1F78
:102610007047FFFF054A137803F00203DBB2002B7B
:10262000F9D0024B02221A70704700BF03600640C7
:10263000094B1B7813B9094B1B782BB1084A137847
:10264000202B03D901230371002070470548C15492
:1026500001331370012070479EEDFF1F61EDFF1FD6
:102660009FEDFF1F40EDFF1F7047FFFF024B1878E3
:10267000024B1B78C01A70479DEDFF1F9CEDFF1F9A
:10268000064A074913780978994204D90549C85C74
:102690000133137070474FF0FF3070479CEDFF1F00
:1026A0009DEDFF1F62EDFF1F054B064A1B78127858
:1026B0009A4202D9044AD05C70474FF0FF3070470D
:1026C0009CEDFF1F9DEDFF1F62EDFF1F38B50E4B08
:1026D0001B78144613B90D4B1B788BB10C4B1D782E
:1026E000C5F121039C4202D9012202711C4609480E
:1026F0002246401904F0AAF8054B2D191D7000E080
:102700001C46204638BD00BF9EEDFF1F61EDFF1F38
:102710009FEDFF1F40EDFF1F10B5104B1B7813F00E
:1027200020040BD11220FEF7AFFB0D4B1B68A3B1A9
:102730000C4A14700C4A1078984710BD0B4A137855
:102740000133DBB2012B137002D8094B1B7823B97C
:102750001220BDE81040FEF797BB10BD0360064095
:102760003CEDFF1F9CEDFF1F9DEDFF1F88EDFF1F40
:1027700061EDFF1F002202710273034A4FF47A7168
:1027800081600260704700BF407D00000B4B00225B
:102790001A700B4B1A6842F040021A60094A4FF453
:1027A0001973136042F8043C074B27221A70042265
:1027B0005A7120221A7180225A70704761EDFF1FF2
:1027C000348004400CA004400160064010B5374A34
:1027D000137803F01001C9B221B903F04002D2B25C
:1027E00042B92EE01021117003F04002D2B2002A4B
:1027F000F3D110BD13F004032D4A18D00023137039
:102800002C4A13702C4B1B68144603B1984722784E
:102810002A4B1AB927491A7001200870284AD0217A
:1028200011701A78274B1A700122274B21E00121E1
:102830001170264A1370224BC0221A7002331B7883
:1028400030E01F4A1F4C117811F0100117D013F01F
:10285000010310D11C4917480A780078904205D925
:10286000164B9B5C013223700A7000E02370144BFE
:10287000D0221A7016E0C0231370237812E0144B94
:102880001220197003221349FEF7D4FA0F4A207858
:1028900013781F2B06D80649097819B10E49C85478
:1028A00001331370014B02221A7010BD0360064001
:1028B00039EDFF1F9FEDFF1F84EDFF1F40EDFF1F50
:1028C0000260064004600640A0EDFF1F9DEDFF1F63
:1028D00088EDFF1F1927000062EDFF1F044B054A1A
:1028E0004900197001231370034A1370704700BF29
:1028F00040EDFF1F9EEDFF1F9FEDFF1F2DE9F041F3
:10290000204B12221A70204A0D46117801F0200146
:10291000C9B211B1B42313700BE019460A7802F062
:102920002002D3B2002BF9D1184A1370164BB022F3
:102930001A700024164E174FDFF8608013E03B5DDD
:1029400088F80030FFF766FE0E4B1B78DA0704D5D7
:10295000002C14BF032002200BE003F01003DBB2B5
:1029600033B90134E4B23378A342E8D8002000E060
:10297000042015B1044B80221A70074B00221A70F4
:10298000BDE8F081036006400260064061EDFF1F74
:102990009FEDFF1F40EDFF1F9EEDFF1F04600640EF
:1029A0002DE9F0471446344A1E4600231370334A7B
:1029B0001370334B12221A70324A107800F0200044
:1029C000C0B210B1B42313700BE01846027802F0C5
:1029D0002002D3B2002BF9D12B4A1370294BB0221D
:1029E0001A704900294D41F001012970FFF712FECC
:1029F000234B244A1B7813F0110F04D0802313704B
:102A00000020BDE8F0872CB9002E0CBFA026802640
:102A10001670F5E7012C01D1A82300E0A023137064
:102A20002B781B4FDFF86480DFF8589025464FF075
:102A3000A80A0BE0013DEDB2FFF7ECFD012D08BF48
:102A400089F800A098F8003007F8013F012DF1D176
:102A5000FFF7E0FD0B4B0F49B0221A700B4A1078BC
:102A6000621ED2B2885420460EB180221A70034BE7
:102A70001C70BDE8F08700BF9CEDFF1F9DEDFF1FA0
:102A8000036006400260064061EDFF1F04600640DF
:102A900061EDFF1F62EDFF1FC9B2D2B20123FFF744
:102AA0007FBF0121FFF72ABF0148FFF763BE00BFC8
:102AB0008CEDFF1F027B02F0CF026FF30302027363
:102AC00000228260426002607047FFFF43682DE988
:102AD000F0410446002B5FD0037BDB065CD500F0A1
:102AE00095FA237B03F00F0303F10E0202F00F02AD
:102AF000022A054646D8A268824243DC022B666859
:102B000001D1A6603EE0032B0FD100F07FFA254BE8
:102B10006268B0FBF3F003FB0066B5FBF3F1AE4275
:102B200098BF013103FB01232BE000F06FFA8046D0
:102B300000F06CFA074600F069FA1A4BB7FBF3F2A3
:102B4000B0FBF3F003FB1277011D0722B1FBF2F09B
:102B5000464402FB1011F61B03FB11666068AE428F
:102B600098BF00F51320B5FBF3F198BF00F528607E
:102B700003FB01000431B1FBF2F602FB161103FB6B
:102B80001103A360237B03F00F03012B08D16368BB
:102B9000ED18A560BDE8F081237B6FF30413237368
:102BA000BDE8F08180510100052907D800EB011133
:102BB000087B10F00F0018BF0120704700207047FD
:102BC00038B504460D46FFF7EFFF58B129016318E9
:102BD0000022187B5A6000F0EF006FF303001873B7
:102BE00062509A6038BD70B50446054600F1600633
:102BF00028461035FFF75EFFB542F9D1002584F86D
:102C00006050294601352046EDB2FFF7D9FF062D69
:102C1000F7D1204670BD38B504460D46FFF7C4FF16
:102C200028B104EB05110B7B6FF304130B7338BD54
:102C300038B504460D46FFF7B7FF88B12B01E218FF
:102C4000516819B1E158003118BF012104EB05109A
:102C5000027B61F304120273BDE83840FFF736BF10
:102C600038BD70B590F8603004467BBB012280F817
:102C700060201CE004EB03131B7BD90614D500F085
:102C8000C5F994F861100A01A31803F108069D68BC
:102C9000A84216DA08E02046FFF792FF02E0184645
:102CA000FFF714FF05B1A84794F86130013384F8A9
:102CB000613094F86130052BDCD9002384F8603052
:102CC00070BDA55832799206E5D4E8E770BDFFFFE4
:102CD000F7B5094B1A68009206460F46009C1D4640
:102CE00002E03046FFF7BDFF2B680193019B1B1BE1
:102CF000BB42F6D9FEBD00BFD0EAFF1F2DE9F84F59
:102D00009DF828809B46A8F10203022B06468946BF
:102D1000924628D800F07AF9154B984223D820E043
:102D200006EB0510ECB2037B1A0700F1080715D17A
:102D30001A466BF34512134668F3030303739DF8B9
:102D40002C30C0F800A0C0F804902146304613B1E2
:102D5000FFF76EFF09E0FFF75EFF06E00135062D85
:102D6000DED1FF2401E00025DAE72046BDE8F88F38
:102D7000FFE1DF0107B5012300930193FFF7BEFFD9
:102D80000EBDFFFF0148FFF72EBF00BFA4EDFF1FE0
:102D90003C23F0B5B0FBF3F4B4FBF3F203FB1400F7
:102DA00003FB12434B7018230870B2FBF3F003FBD4
:102DB00010228A700723021DB2FBF3F403FB1423D5
:102DC00001330022CB70144664274FF4C87C01E025
:102DD0000134E4B204F2B27313F003060DD193FB95
:102DE000F7F507FB153515B14FF4B77507E093FB01
:102DF000FCF50CFB1535002DF6D040F26D1552197F
:102E00008242E5D98C7186B9642493FBF4F504FB06
:102E1000153414B14FF4B77409E04FF4C87493FB40
:102E2000F4F504FB1534002CF4D040F26D14141B9F
:102E3000642293FBF2F702FB17374FF4C872041BAE
:102E4000DFF840C093FBF2F002FB10330022D5B252
:102E5000012D06D146B90FB11D2006E0002BFBD095
:102E600002E012F80C0000E01C20844205D301327D
:102E70000C2AC0EB0404EAD11546013501344D712A
:102E80000C71F0BD587D000038B5054C23689842A0
:102E9000054603D00349FFF77BFF256038BD00BF1F
:102EA00008EEFF1F0CEEFF1F08B5FFF7EDFF024B0A
:102EB000987900F2B27008BD0CEEFF1F08B5FFF75D
:102EC000E3FF014B587908BD0CEEFF1F08B5FFF773
:102ED000DBFF014B187908BD0CEEFF1F08B5FFF7AB
:102EE000D3FF014B187808BD0CEEFF1F08B5FFF7A4
:102EF000CBFF014B587808BD0CEEFF1F08B5FFF75C
:102F0000C3FF014B987808BD0CEEFF1F2DE9F0417F
:102F10002B4B817900244B4364254FF4C87612E093
:102F200004F2B27297070DD192FBF5F705FB172754
:102F300027B992FBF6F706FB17221AB903F5A83357
:102F400003F5C07301348C42EADB01F2B2716422F2
:102F500091FBF2F502FB15154FF4C87291FBF2F6E6
:102F600002FB16164479174FDFF85CC0012201F00E
:102F7000030110E0022A07D131B905B926B903F5DA
:102F8000181303F56E5305E007EB020818F8018CDF
:102F90000CFB08330132A242ECDB427884789100CA
:102FA0009201511A4FF4616202FB04120178007918
:102FB00052180549013801FB0020C018BDE8F08116
:102FC0008033E101587D000080510100094B1860F9
:102FD000094B1B68C018094B1860094B02221A7074
:102FE000084B82B01B680193019A074B1A6002B02C
:102FF000704700BF14EEFF1FB0E4FF1F24EEFF1F59
:1030000018EEFF1FD0EAFF1F20EEFF1F184B194AD2
:103010001B68126873B5184E40F2E73101E0234691
:103020002A46306801900198801A5C1C884202F59B
:103030007A75F4D80F49114C0A6022680C4D9A42F7
:103040002B6012D80E4B1B687BB1984710B1FFF76D
:10305000BDFF0AE00B4B1A682B68D31823600A4B9C
:103060001A78003218BF01221A70014B18687CBD13
:1030700014EEFF1F20EEFF1FD0EAFF1F24EEFF1FFC
:103080001CEEFF1FB0E4FF1F18EEFF1F034B18607C
:10309000034B1A68034B1A60FFF7B8BF1CEEFF1F03
:1030A00014EEFF1F24EEFF1F0846FDF747BE08463B
:1030B0001146FDF74CBEFDF705BEFFFF014B036057
:1030C000704700BF707D0000034B10B504460360DD
:1030D00003F0E8F8204610BD707D000008B50368D5
:1030E000C9B21B68984708BD08B50368DB689847F4
:1030F0000028ACBFC0B2002008BDFFFF014A01712B
:1031000002607047707D000038B5094C0D460179AA
:103110002046FFF7E3FB2046290AFFF7DFFF2046A2
:10312000E9B2FFF7DBFF2046BDE83840FFF7B9BC46
:103130008CEDFF1F70B50E4C0D46017920461646EA
:10314000FFF7CCFB2046290AFFF7C8FF2046E9B26B
:10315000FFF7C4FF236831461B6820469847204686
:10316000FFF79FFC0520BDE87040FEF71FB900BFC8
:103170008CEDFF1F38B50546FFF7C6FF07482979D4
:103180000122FFF789FC0548FFF770FA18B10348E0
:10319000FFF7AAFF0446204638BD00BF8CEDFF1F95
:1031A00073B505256A430E4604460846911CFFF791
:1031B000ABFF2A4614483179FFF76EFC0DF1FF355D
:1031C00004E01148FFF790FF05F8010F0E48FFF7E4
:1031D0004DFA0028F5D19DF801309DF800201B0420
:1031E00043EA02639DF8032013439DF8022043EA5B
:1031F000022323609DF804309A1003F00303227128
:10320000637120467CBD00BF8CEDFF1F38B50021E7
:103210000546FFF7AFFF012104022846FFF7AAFF8A
:10322000204338BD2DE9F74F9B46254B254C1B68A5
:1032300001939246019B0D460646FFF7E7FF4FF0CC
:10324000050909FB00F78046023720463179FFF770
:1032500045FB20463912FFF741FF2046F9B2FFF740
:103260003DFF2046290EFFF739FF2046C5F30741F1
:10327000FFF734FF2046C5F30721FFF72FFF204655
:10328000E9B2FFF72BFF0BF0030141EA8A01204668
:10329000FFF724FF2046FFF704FC08F1010448462D
:1032A000FEF784F830460021C4F30722FFF742FFFF
:1032B00030460121E2B2FFF73DFFBDE8FE8F00BFBF
:1032C000D0EAFF1F8CEDFF1F002110B50A4604460F
:1032D000FFF730FF204601210022BDE81040FFF734
:1032E00029BFFFFF014B0360704700BF807D0000D6
:1032F000034B10B50446036002F0D4FF204610BD16
:10330000807D0000034A02604FF47A72426082605E
:10331000C2607047807D00008368C360436841607D
:103320008360704704300DC89A42B8BF1346834289
:10333000B8BF184670474FF47A7343608360C36028
:103340007047FDF7DDBE08B505200021FDF722FF1F
:1033500006200021BDE80840FDF71CBF0D2000211C
:10336000FDF718BF38B5044608460D46FDF718FDB1
:10337000236802465B6820462946984738BD08B551
:1033800003681B68984708BD08B5FFF7EBFF08BD49
:10339000FDF70CBAD2B20023FDF7D0B938B5044618
:1033A000FDF79DF905462046FDF7BAF9401938BDED
:1033B00038B50446FFF7E3FF05462046FDF7B0F9B0
:1033C000401938BD38B50446FFF7CCFF0546204606
:1033D000FDF7A6F9281838BD38B50446FDF7E6F91B
:1033E00005462046FDF79CF9281838BD08B5036846
:1033F000C9B21B68984708BD08B50368C9B21B6805
:10340000984708BD034B82B01B680193019B036082
:1034100002B07047D0EAFF1F044B00681B6882B0FF
:103420000193019B181A02B0704700BFD0EAFF1F3A
:10343000044B82B01B680193019B591A016002B0D2
:10344000704700BFD0EAFF1F38B50B4B03604B68D5
:1034500043608B688360CB680446C3600D461030C0
:103460001031FDF79FFA04F1200005F12001FDF76E
:1034700099FA204638BD00BF98810000124B1B68A6
:10348000022B10B504460BD0032B11D0012B19D100
:10349000092803DC0D483021FFF771FF0B480EE0CF
:1034A000092803DC0A483021FFF769FF084806E0D5
:1034B000092803DC07483021FFF761FF0548214652
:1034C000FFF766FF10BD00BFC4EEFF1F18EDFF1F22
:1034D000F0E9FF1F00EAFF1F514B1B68022B10B5DC
:1034E000044636D0032B66D0012B40F09780FFF7BF
:1034F00005FDFFF7C3FF4B494B48FFF745FF20464B
:10350000FFF7F4FCFFF7BAFF46494748FFF73CFFD7
:103510002046FFF7E3FCFFF7B1FF2C214248FFF7FD
:103520002EFF2046FFF7CAFCFFF7A8FF3F493E48A1
:10353000FFF72AFF2046FFF7C9FCFFF79FFF3B4933
:103540003948FFF721FF2046FFF7AEFC0146364819
:1035500062E0FFF7D3FCFFF791FF32493448FFF7F1
:1035600013FF2046FFF7C2FCFFF788FF2D493048C4
:10357000FFF70AFF2046FFF7B1FCFFF77FFF2C2182
:103580002B48FFF7FCFE2046FFF798FCFFF776FF7D
:1035900026492748FFF7F8FE2046FFF797FCFFF77C
:1035A0006DFF22492248FFF7EFFE2046FFF77CFC23
:1035B00001461F4830E0FFF7A1FCFFF75FFF194904
:1035C0001C48FFF7E1FE2046FFF790FCFFF756FF8F
:1035D00014491848FFF7D8FE2046FFF77FFCFFF795
:1035E0004DFF2C211348FFF7CAFE2046FFF766FC6B
:1035F000FFF744FF0D490F48FFF7C6FE2046FFF7CF
:1036000065FCFFF73BFF09490A48FFF7BDFE20466E
:10361000FFF74AFC01460748FFF7BAFE10BD00BF9E
:10362000C4EEFF1F1281000018EDFF1F887D00000F
:10363000F0E9FF1F00EAFF1F2DE9F0478EB0FDF70C
:1036400097FE80462048FFF7E1FD204B1B68022BC8
:10365000064600F0F381032B00F0F581012B40F0CA
:103660002A822CE02246684617490134FFF798FD6C
:10367000009F17489DF804909DF805502146FFF7DC
:1036800087FE2C211248FFF77AFE3846FFF724FF09
:103690002C210F48FFF773FE0A2249460C48FFF71A
:1036A00079FE2C210A48FFF76AFE29460A220848BB
:1036B000FFF770FE0A210648FFF761FE00E00024D4
:1036C000B442CFDBF7E100BF34EEFF1FC4EEFF1FB3
:1036D00018EDFF1F2A466846B349FFF761FD002138
:1036E00002A8009C9DF804A09DF805906F1CFDF7B2
:1036F00016F902A906A8FDF755F9394606A8FDF7FF
:10370000BAF901460AA8FDF74DF90AA902A8FDF782
:1037100054F90AA8FDF7C2F806A8FDF7BFF802A9F8
:1037200006A8FDF73FF92C2106A8FDF79EF90146F2
:103730000AA8FDF737F90AA902A8FDF73EF90AA879
:10374000FDF7ACF806A8FDF7A9F802A906A8FDF751
:1037500029F92046FFF7D2FB014606A8FDF78BF9B1
:1037600001460AA8FDF71EF90AA902A8FDF725F9E6
:103770000AA8FDF793F806A8FDF790F802A906A895
:10378000FDF710F93A2106A8FDF76FF901460AA8DE
:10379000FDF708F90AA902A8FDF70FF90AA8FDF735
:1037A0007DF806A8FDF77AF802A906A8FDF7FAF851
:1037B0002046FFF79BFB014606A8FDF75CF9014692
:1037C0000AA8FDF7EFF80AA902A8FDF7F6F80AA87B
:1037D000FDF764F806A8FDF761F802A906A8FDF751
:1037E000E1F83A2106A8FDF740F901460AA8FDF7DD
:1037F000D9F80AA902A8FDF7E0F80AA8FDF74EF8E3
:1038000006A8FDF74BF802A906A8FDF7CBF820465D
:10381000FFF764FB014606A8FDF72DF901460AA84B
:10382000FDF7C0F80AA902A8FDF7C7F80AA8FDF736
:1038300035F806A8FDF732F802A906A8FDF7B2F898
:103840002C2106A8FDF711F901460AA8FDF7AAF8F0
:103850000AA902A8FDF7B1F80AA8FDF71FF806A803
:10386000FDF71CF802A906A8FDF79CF82046FFF713
:1038700025FB014606A8FDF7FEF801460AA8FDF75C
:1038800091F80AA902A8FDF798F80AA8FDF706F82A
:1038900006A8FDF703F802A906A8FDF783F82F2173
:1038A00006A8FDF7E2F801460AA8FDF77BF80AA989
:1038B00002A8FDF782F80AA8FCF7F0FF06A8FCF7BB
:1038C000EDFF02A906A8FDF76DF82046FFF7FEFA06
:1038D000014606A8FDF7CFF801460AA8FDF762F8F1
:1038E0000AA902A8FDF769F80AA8FCF7D7FF06A8FD
:1038F000FCF7D4FF02A906A8FDF754F82F2106A86B
:10390000FDF7B3F801460AA8FDF74CF80AA902A88A
:10391000FDF753F80AA8FCF7C1FF06A8FCF7BEFFA5
:1039200002A906A8FDF73EF82046FFF7BDFA0146BA
:1039300006A8FDF7A0F801460AA8FDF733F80AA982
:1039400002A8FDF73AF80AA8FCF7A8FF06A8FCF7BA
:10395000A5FF02A906A8FDF725F82C2106A8FDF76A
:1039600084F801460AA8FDF71DF80AA902A8FDF788
:1039700024F80AA8FCF792FF06A8FCF78FFF02A91B
:1039800006A8FDF70FF8514606A8FDF774F80146A2
:103990000AA8FDF707F80AA902A8FDF70EF80AA879
:1039A000FCF77CFF02E000BF34EEFF1F06A8FCF727
:1039B00075FF02A906A8FCF7F5FF2C2106A8FDF764
:1039C00054F801460AA8FCF7EDFF0AA902A8FCF783
:1039D000F4FF0AA8FCF762FF06A8FCF75FFF02A944
:1039E00006A8FCF7DFFF494606A8FDF744F80146A4
:1039F0000AA8FCF7D7FF0AA902A8FCF7DEFF0AA86D
:103A0000FCF74CFF06A8FCF749FF02A93648FCF773
:103A100066FE0D213448FFF7E9FC3220FDF7C6FCB5
:103A20000A2395FBF3F203FB125515B93220FDF77B
:103A3000BDFC02A8FCF732FF3D4600E00025B54280
:103A4000FFF648AE37E029487C21FFF798FC0024B8
:103A50002BE02246684626490134FFF7A1FB009F70
:103A600022489DF804909DF805502146FFF790FCF0
:103A70002C211E48FFF783FC3846FFF72DFD2C2133
:103A80001A48FFF77CFC0A2249461848FFF782FCD7
:103A90002C211648FFF773FC294614480A22FFF729
:103AA00079FC12480A21FFF76AFCB442D1DB0F48C7
:103AB0007E21FFF764FC0F490F48FFF765FCFDF717
:103AC00057FC4FF47A73C8EB0001B1FBF3F10A2203
:103AD00000230948FCF732FE08490748FFF772FC4B
:103AE0000EB0BDE8F08700BFF0E9FF1F00EAFF1F3E
:103AF00034EEFF1F8A7D000018EDFF1F997D000046
:103B000007B58DF802309DF810308DF805104E3055
:103B10008DF806008DF8013002A89DF814308DF85C
:103B2000042000F8083D6846FFF7F0F90EBD30B5F7
:103B3000002423460BE00D5D2C2D08BF013301341A
:103B4000972C04D1C4F1970500230C1904E09A4284
:103B5000F1DCF7E7C2540133E25C2C2A02D00AB14F
:103B6000AB42F7D10022C254184630BD30B5002414
:103B7000234609E00D5D2C2D08BF01330134332CA1
:103B800002D10023091907E09A42F3DCF9E71D1975
:103B9000322D04DCC2540133CA5C002AF7D1002262
:103BA000C254184630BD002301E0C2540133CA5C40
:103BB000002AFAD17047FFFF38B50546047812E0B5
:103BC0000C49FFF7E1FB2146102200230A48FCF7CD
:103BD000B5FD0A490848FFF7D7FB21460648FFF71D
:103BE000E7FB15F8014F0448002CE9D10449FFF721
:103BF000E9FB38BD9D7D000018EDFF1F837E0000AE
:103C0000847E000010B5002300E00133C25C22B9BD
:103C1000C85C831A5842584110BDCC5C14B9F7E710
:103C2000002010BDA242F0D0FAE7FFFF08B5194806
:103C3000FFF7F2FB41F28833984229D91648174919
:103C4000FFF7C0FB164B1B78012B04D11549124816
:103C5000FFF7B8FB08BD01210520FDF79BFAFDF732
:103C60004FFA0123002201460F48FFF7DBFA01213A
:103C70001020FDF78FFA3720FDF798FB1020002168
:103C8000FDF788FA094B034800211960FFF7D0FBC4
:103C900008BD00BF30FBFF1F18EDFF1FA07D000017
:103CA00024FBFF1FAF7D000034EEFF1F14EFFF1F4A
:103CB00008B51548FFF7B0FB41F28833984221D987
:103CC00012481349FFF77EFB124B1B78012B04D1DE
:103CD00011490E48FFF776FB08BD05200121FDF7CD
:103CE00059FA01211020FDF755FA3720FDF75EFB48
:103CF00010200021FDF74EFA084B034800211960FF
:103D0000FFF796FB08BD00BF30FBFF1F18EDFF1F3C
:103D1000BC7D000024FBFF1FAF7D000014EFFF1FE0
:103D200038B505463348FFF777FB41F288339842B0
:103D30005ED9314B31481B78012B03D0304C2368BE
:103D4000012B03D12F49FFF73DFB38BD2E49FFF76B
:103D500039FB06200121FDF71DFA2C4A2C480121D0
:103D6000FFF708F801211120FDF714FAC820FDF72C
:103D70001DFB00211120FDF70DFA6420FDF716FB55
:103D800001210F20FDF706FAC820FDF70FFB0021E7
:103D90000F20FDF7FFF96420FDF708FB012111203A
:103DA000FDF7F8F9C820FDF701FB00211120FDF710
:103DB000F1F96420FDF7FAFA01210F20FDF7EAF985
:103DC000C820FDF7F3FA00210F20FDF7E3F9642086
:103DD000FDF7ECFA01232360FDF792F9EAB2014600
:103DE00000230C48FFF71EFA02480021FFF720FBD2
:103DF00038BD00BF30FBFF1F24FBFF1F18EDFF1F66
:103E000014EFFF1FD47D0000ED7D0000473300005C
:103E1000A4EDFF1F34EEFF1F30B585B0FEF72AFB7F
:103E20000446B0B1224C23490A2296236846FCF787
:103E300004FD69462046FCF7C0FD6846FCF72EFDF0
:103E4000A2681D49013220460023FCF785FE0122AD
:103E500017E0FDF769FCB8B1154D18490A22642333
:103E60006846FCF7EAFC69462846FCF7A6FD68466A
:103E7000FCF714FDAA68104928462346FCF76CFE9F
:103E800002220F4B1A6011E0FDF762FD0C4C50B19D
:103E900096230D21084A0B48FCF7AEFC0648FFF7B5
:103EA0008BFE032301E04FF0FF33236005B030BDEC
:103EB00004EFFF1F18EDFF1F5BFBFF1FF0E9FF1F63
:103EC000C4EEFF1F00EAFF1F10B50A4C0A48214646
:103ED000FCF77BFD21460948FCF777FD0021142201
:103EE000074802F0D3FD074800219622BDE81040A4
:103EF00002F0CCBD847E00004CEEFF1F04EFFF1FDC
:103F000035FBFF1F5BFBFF1F10B50D4C2368002B1B
:103F100015DD0D200121FDF73DF9022109480A4A6E
:103F2000FEF728FF2368012B02D0032B07D102E004
:103F30000648074901E005480649FFF743FA10BD66
:103F4000C4EEFF1FA4EDFF1F5D33000018EDFF1F3F
:103F5000FE7D0000157E000008B5062830D8DFE899
:103F600000F0040A10161C22280018481849FFF710
:103F70000BFA002222E015481649FFF705FA012244
:103F80001CE012481449FFF7FFF9022216E00F481F
:103F90001249FFF7F9F9032210E00C481049FFF726
:103FA000F3F904220AE009480E49FFF7EDF905226A
:103FB00004E006480C49FFF7E7F906220B4B1A60AC
:103FC0000D210248FFF712FA08BD00BFF0E9FF1FFC
:103FD0002A7E00002D7E0000377E00003B7E000020
:103FE000407E0000457E00004A7E000020FBFF1F4F
:103FF00010B5154B1A78D2F1010238BF00221A70A1
:104000001C78012C0ED111481149FFF7DBF9114B37
:104010001A6802B91C60FDF773F8002201460223FA
:104020000D480BE01C786CB90C490848FFF7CAF939
:10403000FDF766F80146084822460323BDE8104014
:10404000FFF7F0B810BD00BF24FBFF1F18EDFF1FE6
:10405000527E000014EFFF1F34EEFF1F5D7E000054
:1040600038B505460C4608462C21FCF79BFD01306F
:1040700004D128462146FCF782FC09E02C21204689
:10408000FCF790FD2146034600222846FCF78DFDF3
:10409000284638BDF8B5184C184E4FF480374FF409
:1040A0000035276002203560FDF794F8C8B1032081
:1040B000FDF790F8B8B10420FDF78CF8A8B137608F
:1040C00002202560FDF786F888B10320FDF782F80D
:1040D00078B10420FDF77EF800280CBF41200020B5
:1040E000F8BD4220F8BD4320F8BD4420F8BD46206D
:1040F000F8BD4520F8BD00BF48F00F4044F00F4028
:1041000017208021FDF78EB81620C821FDF78AB848
:1041100017200021FDF786B816200021FDF782B890
:1041200008B5FFF7EDFFBDE80840FFF7EDBF08B5A4
:10413000FFF7EEFFBDE80840FFF7EEBF7FB505468D
:1041400026492748FFF720F925482946FFF726F991
:1041500000243DE068462349224601F0EAFC284657
:104160006946FCF7A4FC38B11E48214601F0F5FC75
:10417000061C18BF012600E006466846FCF78EFBC9
:104180002EB32146174801F0CEFCFFF7C9FD1649B2
:104190001348FFF7F9F82146124801F0C4FC014624
:1041A0000F48FFF7F5F811490D48FFF7EDF81049F2
:1041B0000B48FFF7E9F868460A49224601F0C3FCBC
:1041C00007486946FFF7EAF86846FCF767FB0134E1
:1041D000044801F084FC8442BCDB7FBD687E0000A3
:1041E00018EDFF1F18EFFF1F767E0000827E000093
:1041F000857E00002DE9F04FBFB002AFA54907F161
:104200005C00FCF7CFFB07F16C0007F15C01FFF7E6
:1042100027FF07F16C01A048FCF7CFFB07F16C000A
:10422000FCF73CFB07F15C00FCF738FB00229B49E4
:104230009B48FFF77CFC9B4907F16C00FCF76FFB88
:10424000954807F16C01FCF740FC044607F16C004F
:10425000FCF724FB1CB194489449FFF795F8944966
:1042600007F16C00FCF75BFB8B4807F16C01FCF776
:104270002CFC28B18F4B1C68A11E4C424C4100E025
:10428000044607F16C00FCF709FB84B18A4A8B48AD
:10429000012313608A4A002111608A4A1360FFF7E4
:1042A000C7F8FFF711FEFFF7B7FDFFF7A3FF864939
:1042B00007F16C00FCF733FB774807F16C01FCF762
:1042C00004FC28B17B4B1C68A21E5442544100E000
:1042D000044607F16C00FCF7E1FA8CB1764A7B48A2
:1042E00000231360764A1360794A1370754A13608D
:1042F000FFF721F877497848FCF767FBFFF7E4FD03
:1043000067487649FFF77EFC60B16449012207F1F6
:10431000BC00FFF72BFC07F1BC016F48FCF755FB15
:10432000FFF7D2FD5E486E49FFF76CFC00286AD0AB
:104330005A49012207F1BC00FFF7F9FB97F8BC309E
:1043400097F8BD2055494FEAC30A0AEB430A924445
:1043500007F1BC000222FFF7EAFB97F8BD9097F83F
:10436000BC304E490A240322A9F1100907F1BC0010
:1043700004FB0399FFF7DBFB97F8BD8097F8BC308F
:1043800046490422A8F1100807F1BC0004FB038889
:10439000FFF7CDFB97F8BD6097F8BC303F49052289
:1043A000103E07F1BC0004FB0366FFF7C0FB97F863
:1043B000BD5097F8BC303949103D04FB0355062227
:1043C000EDB207F1BC00FFF7B2FB009597F8BD30E6
:1043D00097F8BC20103B04FB02340AF5B86A5FFA78
:1043E00089F95FFA88F8F6B2E4B2424633464946A4
:1043F00001945046FFF784FBFCF788FE304B052202
:104400001A60FFF761FD26483649FFF7FBFBD0B184
:104410000122224907F1BC00FFF789FB07F1BC012B
:1044200007F16C00FCF77BFA07F16C00FCF7F0FB7E
:10443000044607F16C00FCF731FA2B48214601F0E5
:10444000BCFDFFF741FD16482849FFF7DBFB78B1BB
:10445000184B1A68012A1C4602D1234801F04CFC73
:104460002368032B02D1204801F054FCFFF72CFDF8
:104470000B481F49FFF7C6FB002871D00D4B1B6886
:10448000032B03D11B487C21FEF779FF0024094D43
:1044900059E000BF04EFFF1F4CEEFF1F5BFBFF1F47
:1044A00035FBFF1F8D7E000018EDFF1F957E00007D
:1044B000A07E0000C4EEFF1FCCEEFF1F2CFBFF1FF1
:1044C00020FBFF1F4CFBFF1F9D7E00003CEEFF1FEB
:1044D000C8EEFF1F847E000024FCFF1FA87E0000A2
:1044E000AD7E0000B57E000018EFFF1FBE7E00000D
:1044F000CC7E000000EAFF1F224607F15C00C549A0
:1045000001F017FBC44907F16C00FCF708FA07F14A
:104510005C0007F16C01FCF70BFB064607F16C0031
:10452000FCF7BCF956B1BB48214601F01DFB2B68D6
:10453000032B03D1B748214601F07AFB07F15C0059
:10454000FCF7ACF90134B34801F0C9FA8442D3DB7B
:10455000B24B1B68032B03D1B1487E21FEF70FFF3E
:10456000B048B149FFF74EFB002800F00B8107F17E
:104570006C040122AD4907F1BC00FFF7D8FA07F13E
:10458000BC012046FCF7CBF92046FCF741FB7861E3
:104590002046FCF783F90222A44907F1BC00FFF78B
:1045A000C6FA07F1BC012046FCF7B9F92046FCF732
:1045B0002FFB034620467B60FCF770F903229B49E2
:1045C00007F1BC00FFF7B3FA07F1BC012046FCF786
:1045D000A6F92046FCF71CFB83462046FCF75EF953
:1045E0000422924907F1BC00FFF7A1FA07F1BC01D0
:1045F0002046FCF794F92046FCF70AFB8446204647
:10460000C7F808C0FCF74AF90522884907F1BC0041
:10461000FFF78DFA07F1BC012046FCF780F9204630
:10462000FCF7F6FA82462046FCF738F906227F4965
:1046300007F1BC00FFF77BFA07F1BC012046FCF74D
:104640006EF92046FCF7E4FA05462046FCF726F909
:104650000722764907F1BC00FFF769FA07F1BC01B0
:104660002046FCF75CF92046FCF7D2FA06462046C5
:10467000FCF714F908226D4907F1BC00FFF757FA5F
:1046800007F1BC012046FCF74AF92046FCF7C0FAC6
:1046900038612046FCF702F90922644907F1BC00A1
:1046A000FFF745FA07F1BC012046FCF738F9204630
:1046B000FCF7AEFA80462046FCF7F0F80A225B4988
:1046C00007F1BC00FFF733FA07F1BC012046FCF705
:1046D00026F92046FCF79CFAF8602046FCF7DEF845
:1046E0000B22524907F1BC00FFF721FA07F1BC0188
:1046F0002046FCF714F92046FCF78AFA814620464A
:10470000FCF7CCF80C22494907F1BC00FFF70FFA7F
:10471000EDB207F1BC0107F15C00FCF700F9009570
:1047200000250195D7F808C07B680CF5FA60D9B26E
:104730005FFA8BF25FFA8AF3FFF7E2F95FFA89F327
:104740008DE828003D69EAB2FD688246EBB2F1B21D
:1047500008F5FA60FFF7D4F907F15C010546204639
:10476000FCF720F9009479692A4852462B4601F05B
:104770007FFB2046FCF792F8FFF7A6FB07F15C00F1
:10478000FCF78CF827482A49FFF73CFA002800F08C
:1047900051810122254907F16C00FFF7C8F907F1A3
:1047A0006C0107F11C00FCF7BAF802221F4907F15F
:1047B0006C00FFF7BCF907F16C0107F12C0007F161
:1047C0005C04FCF7ACF80322184907F16C00FFF712
:1047D000AEF907F16C012046FCF7A1F82046FCF782
:1047E00017FA034620467B60FCF758F804220F496D
:1047F00007F16C00FFF79BF907F16C012046FCF70D
:104800008EF82046FCF704FA83462046FCF746F86B
:1048100005220FE018EFFF1FDD7E0000C4EEFF1F32
:1048200000EAFF1F35FBFF1FDF7E00005BFBFF1F61
:10483000E87E0000914907F16C00FFF778F907F175
:104840006C012046FCF76BF82046FCF7E1F9844642
:104850002046C7F808C0FCF721F80622874907F16F
:104860006C00FFF764F907F16C012046FCF757F87C
:104870002046FCF7CDF982462046FCF70FF80722C8
:104880007E4907F16C00FFF752F907F16C012046F1
:10489000FCF745F82046FCF7BBF905462046FBF738
:1048A000FDFF0822754907F16C00FFF740F907F199
:1048B0006C012046FCF733F82046FCF7A9F90646C0
:1048C0002046FBF7EBFF09226C4907F16C00FFF76C
:1048D0002EF907F16C012046FCF721F82046FCF781
:1048E00097F978612046FBF7D9FF0A22634907F15F
:1048F0006C00FFF71CF907F16C012046FCF70FF87C
:104900002046FCF785F980462046FBF7C7FF0B22BF
:104910005A4907F16C00FFF70AF907F16C012046CC
:10492000FBF7FDFF2046FCF773F938612046FBF7E3
:10493000B5FF0C22514907F16C00FFF7F8F807F1B9
:104940006C012046FBF7EBFF2046FCF761F981463E
:104950002046FBF7A3FF0D22484907F16C00FFF743
:10496000E6F8EDB207F16C0107F13C00FBF7D7FF69
:10497000009500250195D7F808C07B680CF5FA6012
:10498000D9B25FFA8BF25FFA8AF3FFF7B9F85FFAF0
:1049900089F38DE828007D69EAB23D69F1B2EBB296
:1049A000824608F5FA60FFF7ABF807F12C010546DF
:1049B00007F14C00FBF7F6FF314801F090F807F1E2
:1049C0003C0106462046FBF7EDFF3246534607F111
:1049D0004C010095019407F18C0000F0C3FE2046C5
:1049E000FBF75CFF07F14C00FBF758FF07F18C0168
:1049F00007F1BC00FEF728FD07F1BC01204801F0DB
:104A0000E9FA07F1BC0000F079FE07F18C0000F034
:104A100075FE07F13C00FBF741FF07F12C00FBF7A7
:104A20003DFF184B01221A70FFF74EFA07F11C00E8
:104A3000FBF734FF14481549FFF7E4F858B3012297
:104A40000E4907F1BC00FFF772F807F1BC0107F14E
:104A50006C00FBF764FF07F16C00FCF7D9F8044623
:104A600007F16C00FBF71AFF40F60663A4F10A0297
:104A70009A42074B0ED91E221A600CE05BFBFF1F07
:104A800018EFFF1FC0EEFF1F35FBFF1FF07E000079
:104A9000B4E4FF1F1C609C489C49FFF7B3F8D0B1F9
:104AA00001229B4907F1BC00FFF741F807F1BC0167
:104AB00007F16C00FBF733FF07F16C00FCF7A8F877
:104AC000044607F16C00FBF7E9FE9248214601F02D
:104AD00041FAFFF7F9F98C488F49FFF793F868B16D
:104AE0008D498E48FEF76EFCFCF70AFB0122014659
:104AF00013468B48FEF796FBFFF7E6F98248894993
:104B0000FFF780F838B187498448FEF75BFCFEF771
:104B100093FDFFF7D9F97C488349FFF773F828B173
:104B20007F48FEF7D1FB7B4801F0C1F976487F4909
:104B3000FFF768F828B1FCF7E3FAFEF7CDFCFFF7C2
:104B4000C3F971487A49FFF75DF820B1794B01222A
:104B50001A70FFF7B9F96C487749FFF753F820B39B
:104B6000764B6E481B68012B0CBF75497549FEF7E3
:104B700029FC754B69481B68012B0CBF73497449AC
:104B8000FEF720FC6B4B65481B780BB1714900E0C8
:104B90007149FEF717FC71496048FEF7F5FB704953
:104BA0005E48FEF7FBFBFFF78FF957486D49FFF7AB
:104BB00029F820B16C4B01221A70FFF785F9524891
:104BC0006A49FFF71FF8002833D0694B1B68022B96
:104BD00010D0032B1BD0012B2BD1664B4F481B78D9
:104BE000012B0CBF64496549FEF7ECFB644B4B4855
:104BF0001B6818E05F4B63481B78012B0CBF5E49B4
:104C00005E49FEF7DFFB5E4B5E481B680BE0594BCD
:104C10005D481B78012B0CBF57495849FEF7D2FB62
:104C2000574B59481B680BB9584900E05849FEF7E3
:104C3000C9FB35485749FEF7E5FF80B101223449E9
:104C400007F1BC00FEF792FF07F1BC014D48FEF7EB
:104C50009BFB0D214B48FEF7C9FBFFF735F92A48AE
:104C60004D49FEF7CFFF48B10D20FCF7B3FAD0F164
:104C7000010138BF00210D20FCF78CFA224847497A
:104C8000FEF7C0FF28B346492448FEF77DFB01220A
:104C90001F4907F1BC00FEF769FFC31D23F007039E
:104CA0006E46ADEB030D02AD044607F1BC0128468C
:104CB000FEF779FF7C213448FEF79EFB284621460B
:104CC000FCF72EFE7E213048FEF796FBFFF7FCF83E
:104CD000B5460D483349FEF795FF38B11A4B1B68AE
:104CE00013B10120FFF738F9FFF7EEF806482E4917
:104CF000FEF788FF00285ED01D4B1B68022B5AD19F
:104D0000C3E0002255E000BF35FBFF1F047F000019
:104D10005BFBFF1F18EFFF1F0E7F000018EDFF1F4A
:104D200034EEFF1F157F0000207F0000297F000068
:104D30002F7F0000C8EEFF1F367F0000CCEEFF1F64
:104D4000407F0000507F00004CFBFF1F637F00008E
:104D5000767F00008C7F0000997F0000AA7F000012
:104D600024FCFF1FBE7F0000C0EEFF1FC97F0000B4
:104D7000C4EEFF1F24FBFF1FAF7D0000D57F0000A6
:104D800014EFFF1FF0E9FF1F00EAFF1FE47F0000A0
:104D9000F37F0000048000000B80000015800000FD
:104DA0001E800000268000002E800000032B02D110
:104DB00001223B4B1A603B483B49FEF723FF20B1E1
:104DC0000220FFF7C9F8FFF77FF836483749FEF7AA
:104DD00019FF20B10320FFF7BFF8FFF775F831483E
:104DE0003349FEF70FFF18B1FEF720FFFFF76CF80D
:104DF0002C483049FEF706FFE0B12F4B1B68022B11
:104E000005D0032B11D0012B12D100200EE02B492D
:104E100007F16C00FBF7C6FD07F16C00FFF78EF998
:104E200007F16C00FBF73AFD02E00120FEF778FF86
:104E3000FFF74AF81B482249FEF7E4FE08B1FFF7E6
:104E400043F8204B1A782D2A19D15C781E48642229
:104E500014FB02F49A78DB78D10001EB4202A4182B
:104E6000E418A4F5A654103C1849FEF78DFA214623
:104E70001548FEF7B1FA16482146FEF74DFAFFF73E
:104E800023F83220FCF792FA04E0124B1B68022B45
:104E90008CD136E707F1F407BD46BDE8F08F00BFBF
:104EA0004CFBFF1F35FBFF1F3180000037800000E7
:104EB0003D80000046800000C4EEFF1F24FCFF1F61
:104EC000518000005BFBFF1F18EDFF1F58800000A2
:104ED0003CEEFF1F20FBFF1F10B53B48FEF7D6F846
:104EE0003A48FDF753FC41F2883440F24130FCF778
:104EF00099FB2046FCF7AAFC0C200221FCF776F96E
:104F00000B200021FCF772F917200121FCF76EF944
:104F100016200121FCF76AF90D200121FCF766F942
:104F20000F200121FCF762F910200121FCF75EF946
:104F300011200121FCF75AF900200121FCF756F954
:104F400001200146FCF752F902200146FCF74EF918
:104F500003200221FCF74AF904200221FCF746F95C
:104F600005200121FCF742F901210620FCF73EF95A
:104F70002046174CFCF71AFA16492046FEF722FA8B
:104F80000220FEF7E9FF14492046FEF71BFAFEF760
:104F900043FFFFF72FF90420FEF7DEFFFEF73CFF8B
:104FA000FFF728F90D492046FEF7EEF90C48FEF709
:104FB0002DF901462046FEF70FFAFEF779FE094863
:104FC000BDE8104001F01AB8433300008CEDFF1F1C
:104FD00018EDFF1F5F8000006D8000007D800000E5
:104FE00034EEFF1F18EFFF1F08B50B20FCF7F2F897
:104FF000034B08B1002200E001221A7008BD00BF77
:1050000034FBFF1F7FB5FFF745F8364B1A78824215
:10501000044650D0187000284DD000213248FEF7C9
:1050200007FA32493248FEF7AFF9FFF733F8014685
:105030002F48FEF7BDF9FFF773F89620FCF7B6F995
:10504000FFF775F8462C1ED02A4E2B4D33682B499E
:10505000EC54274801333360FEF796F9244829467B
:10506000FEF7B0F933680A2B25DD29466846FBF7C1
:1050700056FC6846FFF762F86846FBF70FFC002114
:105080003160284614E01E4B1B68012B02D1FEF74D
:10509000CDFD24E018496846FBF741FC6846FFF760
:1050A0004DF86846FBF7FAFB124B134800211960D4
:1050B0000B2201F0EBFC0C48FEF7AEF942F2107344
:1050C00098420CD90B4B1A68002A08DD0A480021C7
:1050D0000B22196004B0BDE8704001F0D7BC04B0E9
:1050E00070BD00BFC1EEFF1F2CEEFF1F98800000B7
:1050F00018EDFF1F28FBFF1F50FBFF1FA6800000BD
:1051000014EFFF1F08B50A4B1B787BB10948FEF767
:1051100083F9094B1B684FF47A725343984205D9BF
:10512000FEF7C6FD03480021FEF782F908BD00BF67
:10513000B8E4FF1F30EEFF1FB4E4FF1F30B50021BD
:10514000ABB0A048FDF7C4FDFFF7DCFF9E48FEF7BB
:1051500063F9B0F57A7F0BD90520FCF73BF80028FE
:1051600040F074810620FCF735F8002840F06E818D
:10517000FFF73AFF0C20FCF72DF8944B1B78984270
:1051800001D0FEF735FFFFF73DFFFEF745FEFEF7C6
:10519000BBFEFFF72FF88E4B1A781AB38D4A1268B0
:1051A000012A1FD100221A708B4B1B78D3B98B4B6D
:1051B0001B6863B13220FCF7F9F80220FEF7CCFE41
:1051C0003220FCF7F3F8FEF727FEFFF713F806206E
:1051D000FEF7C2FEFEF720FEFFF70CF841F2883022
:1051E000FCF7E4F87E4902A8FBF799FB7D4902A889
:1051F000FBF70EFC014606A8FBF7D4FB754B1B68BA
:10520000012B5FD1744B1B78002B5BD075490AA82A
:10521000FBF7C8FB74480AA900F063FC01300FD10A
:1052200006A90EA8FBF7BEFB0EA96F4800F059FCBB
:10523000B0F1FF30444244410EA8FBF72FFB00E0E1
:1052400000240AA8FBF72AFB002C3BD006A90AA8D9
:10525000FBF7A8FB644800F042FC0EAC054663492E
:105260002046FBF75CFB00238DE818002A460AA9BC
:1052700012A800F077FA2046FBF710FB0AA8FBF70C
:105280000DFB12A91EA8FEF7DFF81EA9564800F074
:10529000A1FE1EA800F032FA55495648FEF774F8F0
:1052A000204612A900F08AFA21465248FEF776F805
:1052B0002046FBF7F3FA4F484F49FEF783F812A850
:1052C00000F01CFA4D48FEF7A7F841F288339842E7
:1052D00017D9404B1B68012B13D10220FEF73CFE6F
:1052E0003220FCF763F8FEF797FDFEF783FF0420FA
:1052F000FEF732FE3220FCF759F8FEF78DFDFEF77F
:1053000079FF3E48FEF788F8B0F57A7F47D93C4BE5
:105310001B78002B40F09D8041E02F4B1B787BB128
:105320002E4B1B6863B13220FCF740F80220FEF7D9
:1053300013FE3220FCF73AF8FEF76EFDFEF75AFF37
:10534000244B1B68012B19D1234B1B78B3B9234B7A
:105350001B6863B13220FCF729F80220FEF7FCFD40
:105360003220FCF723F8FEF757FDFEF743FF042039
:10537000FEF7F2FDFEF750FDFEF73CFF154B1C68F3
:10538000012C0CD11F48FEF747F8B0F52F7F06D946
:10539000124B196819B9104B1B78002B5FD10D4BBC
:1053A0001C68012C3DD10C4B1B78002B39D0144BC1
:1053B0001B78B3B31448FDF7B5FF3B28134B27DC2C
:1053C0001C7027E0A4EDFF1F30FBFF1F24FBFF1F15
:1053D000C0EEFF1FCCEEFF1FC8EEFF1F4CFBFF1FF0
:1053E000DD7E000024FCFF1F18EFFF1FBF800000C0
:1053F000D680000018EDFF1F148100002CFBFF1F5A
:1054000034FBFF1F8CEEFF1F3CEEFF1F00EFFF1F62
:1054100000221A702348FDF785FF502801DDFEF7B2
:1054200047FC214B1B6853B9204B1B783BB1FEF75F
:1054300031FE462803D11E4B1B78462B1AD106A8F5
:10544000FBF72CFA02A8FBF729FA29E0FDF77BFF0E
:105450008EE6184B1B68012B7FF472AF5DE7164890
:10546000FDF7E6FF2046FEF777FDFEF7D5FCFEF7D9
:10547000C1FE94E711491248FDF786FF1149104813
:10548000FDF78CFF0420FEF74BFC0E490EA8FBF73E
:1054900089FA0EA8FEF752FE0EA8FBF7FFF9CEE739
:1054A0002BB030BD3CEEFF1F14EFFF1F00EFFF1FBE
:1054B000C1EEFF1FCCEEFF1F8CEEFF1F2681000008
:1054C00018EDFF1F24FCFF1F2DE9F0476C4C6D4DBC
:1054D000DFF810826C4FDFF81092DFF810A26B4EED
:1054E0008AB050212046FDF709FE2046684C6949E4
:1054F0002A4600F08BFE2046FDF704FF2046664C4E
:1055000066492A4600F082FE41462046FBF707FA2C
:105510002046634C2A46394600F078FE4146204634
:10552000FBF7FDF92A463946204600F06FFE5D483C
:10553000FDF768FF5C48FDF765FF5C48FDF762FF1B
:105540005B48FDF75FFF5B4806ACFDF75BFF02A819
:105550005949FBF7E4F920465849FBF7E0F90022E6
:10556000134602A9CDF800A00194484600F0FAF8CD
:105570002046FBF793F902A8FBF790F92A4631463B
:10558000484600F043FEDFF868914D4902A8FBF75A
:10559000C6F920464B49FBF7C2F9002302A90122B4
:1055A000CDF800A00194484600F0DCF82046FBF757
:1055B00075F902A8FBF772F92A463146484600F011
:1055C00025FE4149DFF82C9102A8FBF7A8F9FBF76B
:1055D00097FD82463D4920460AF5C33AFBF79FF9FD
:1055E0000AF1A00302A902228DE818004846002310
:1055F00000F0B8F82046FBF751F902A8FBF74EF986
:105600002A463146484600F001FE3149DFF8E8906D
:1056100002A8FBF784F9FBF773FD82462D4920466B
:105620000AF5C33AFBF77BF90AF1A00302A90322AA
:105630008DE818004846002300F094F82046FBF758
:105640002DF9254C02A8FBF729F931462A46484690
:1056500000F0DCFD204600F019FA20461F4C2049DE
:105660002A4600F0D3FD41462046FBF758F9204674
:1056700039462A4600F0CAFD0AB0BDE8F08700BFEF
:1056800034EEFF1F00E4FF1F9D080000FD560000E0
:105690003CEEFF1FBD30000004EFFF1FE5320000AD
:1056A0004CEEFF1F8CEEFF1F2CFBFF1F30FBFF1F7C
:1056B00030EEFF1F2CEEFF1F338100003A81000007
:1056C000468100004B810000558100005B81000095
:1056D0006B8100007381000018EFFF1F24FCFF1F87
:1056E000F9570000847E00005CEEFF1F005786F42F
:1056F000D0EEFF1F90EEFF1FF4FBFF1F064B10B50F
:10570000044640F8203BFBF7C9F804F11000FBF712
:10571000C5F8204610BD00BF9881000010B50446B2
:10572000FFF7ECFF204600F0BDFD204610BDFFFF57
:1057300038B50A4B0A4D03600023436083604FF085
:10574000FF330446C36029461030FBF7E8F804F144
:1057500020002946FBF7E3F8204638BD9881000079
:10576000847E000010B504460848E26084E8090021
:10577000029B04F11000A360FBF714F904F1200070
:105780000399FBF70FF9204610BD00BF9881000078
:1057900010B50446FBF7B4FC6368984205DDA368C6
:1057A0009842ACBF0020012010BD002010BD203069
:1057B000FBF7F0B8816070474160704710B5103159
:1057C0000446FBF7EFF8204610BDC068704710B5DF
:1057D00020310446FBF7E6F8204610BD40687047CC
:1057E00080687047C16070471030FBF7D3B8002362
:1057F000436083607047FFFF70B5084B064605465F
:1058000046F8083B00F60844B44205D054F8303D51
:105810001B6820469847F7E7284670BDA88100001E
:1058200010B50446FFF7E8FF204600F03BFD204698
:1058300010BDFFFF092810B5044603DC04483021E1
:10584000FDF79DFD02482146BDE81040FAF7AEBFC6
:1058500018EDFF1F70B51C4C1C4E0546FDF74EFBA6
:10586000FFF7E8FF31462046FDF78EFD2846FDF79D
:105870003DFBFFF7DFFF31462046FDF785FD28465B
:10588000FDF72CFBFFF7D6FF2C212046FDF777FD17
:105890000F4E2846FDF712FBFFF7CCFF314620469E
:1058A000FDF772FD2846FDF711FBFFF7C3FF3146F8
:1058B0002046FDF769FD2846FDF7F6FA0146204629
:1058C000BDE87040FAF772BF18EDFF1F12810000AB
:1058D000887D0000092810B5044603DC0448302107
:1058E000FDF74DFD02482146BDE81040FAF75EBFC6
:1058F00000EAFF1F70B51C4C1C4E0546FDF7FEFA72
:10590000FFF7E8FF31462046FDF73EFD2846FDF74C
:10591000EDFAFFF7DFFF31462046FDF735FD28465B
:10592000FDF7DCFAFFF7D6FF2C212046FDF727FD17
:105930000F4E2846FDF7C2FAFFF7CCFF314620464E
:10594000FDF722FD2846FDF7C1FAFFF7C3FF3146F8
:105950002046FDF719FD2846FDF7A6FA0146204628
:10596000BDE87040FAF722BF00EAFF1F1281000075
:10597000887D0000F0B50A2291B00C460646084624
:105980000D21FBF738F90A212046FBF70BF9A76830
:10599000054629463B48FDF71FFD39463948FDF7C6
:1059A0001BFD65E095B901220CA82146FBF71CF907
:1059B0000CA92046FBF701F80CA8FAF76FFF204668
:1059C0000CA90A222B46FBF7C7F82CE02B466846A9
:1059D00021460022FBF7E9F86A1C04A82146FBF7E0
:1059E00003F9694608A8FAF7DDFF04A908A8FBF740
:1059F00033F801460CA8FAF7D5FF0CA92046FAF7B0
:105A0000DCFF0CA8FAF74AFF08A8FAF747FF204680
:105A10000CA90A220023FBF79FF804A8FAF73EFF1F
:105A20006846FAF73BFFA368013B9D420ED1002276
:105A30000A212046FBF7DFF813491248FDF7A4FCC2
:105A400020460CA90A220023FBF786F80A212046EB
:105A5000FBF7A8F8054629460A48FDF7BDFC0948AA
:105A6000A1680A220023FAF769FE0648FAF758FEF1
:105A70006B1C97D130462146FAF781FF304611B0B2
:105A8000F0BD00BF18EDFF1FB081000070B5084BDE
:105A90000446054644F8083B04F540662046303489
:105AA000FFF746FEB442F9D100236B60284670BD73
:105AB000A881000038B54B6843608B688360CB6871
:105AC0000446C3600D4610301031FAF763FF04F14D
:105AD000200005F12001FAF75DFF204638BD40683F
:105AE00070472DE9FF4105460E460024302711E09E
:105AF00007FB045168460831FFF760FE30466946EF
:105B0000FAF7D5FF80466846FAF7C8FEB8F1000FED
:105B100005D101346B689C42EADB4FF0FF3420462C
:105B200004B0BDE8F081302303FB01000830FFF72B
:105B30004CBE302303FB021110B508310446FFF7B9
:105B40003DFE204610BD302303FB021110B5083185
:105B50000446FFF73CFE204610BD302303FB010046
:105B60000830FFF715BEFFFF7FB5294C0E460546EE
:105B700028492046FDF708FC711C2046FDF72CFC47
:105B800020462549FDF700FC302303FB0655083568
:105B900068462946FFF712FE69462046FDF7FEFBE0
:105BA0006846FAF77BFE1D492046FDF7EDFB2846C7
:105BB000FFF70BFE01462046FDF70EFC2046184974
:105BC000FDF7E2FB68462946FFF701FE69462046DD
:105BD000FDF7E4FB6846FAF761FE12492046FDF73F
:105BE000D3FB2846FFF7FAFDFFF734FE20460E49A7
:105BF000FDF7E8FB0D492046FDF7C6FB2846FFF7F9
:105C0000EFFDFFF727FE20460A21FDF7D1FB7FBD00
:105C100018EDFF1FB5810000C3810000CD81000099
:105C2000857E0000D6810000847E0000EB810000AC
:105C30007FB5294C0E46054628492046FDF7A4FBB2
:105C4000711C2046FDF7C8FB20462549FDF79CFB4B
:105C5000302303FB0655083568462946FFF7AEFD9D
:105C600069462046FDF79AFB6846FAF717FE1D497C
:105C70002046FDF789FB2846FFF7A7FD0146204691
:105C8000FDF7AAFB20461849FDF77EFB684629462A
:105C9000FFF79DFD69462046FDF780FB6846FAF751
:105CA000FDFD12492046FDF76FFB2846FFF796FDE4
:105CB000FFF720FE20460E49FDF784FB0D492046E4
:105CC000FDF762FB2846FFF78BFDFFF713FE20462A
:105CD0000A21FDF76DFB7FBD00EAFF1FB5810000C3
:105CE000C3810000CD810000857E0000D6810000C8
:105CF000847E0000EB81000038B50546002404E0F6
:105D000021462846FFF730FF01346B689C42F7DBE1
:105D100038BDFFFF38B57C2105460948FDF72FFB4C
:105D2000002404E021462846FFF782FF01346B6817
:105D30009C42F7DB7E210248FDF721FB38BD00BF06
:105D400000EAFF1F2DE9F043804689B0474898F8E4
:105D500004200021FDF7ABF9012400264FF03009A3
:105D60007CE009FB068508352846FFF72EFD214615
:105D7000C2B23E48FDF79BF92846FFF72FFD0746C4
:105D8000611C3A0E3948FDF792F9A11CC7F307428E
:105D90003648FDF78CF9E11CC7F307223348FDF7BD
:105DA00086F9211DFAB23148FDF781F92846FFF73F
:105DB00017FD0746611D3A0E2C48FDF778F9A11D25
:105DC000C7F307422948FDF772F9E11DC7F307221F
:105DD0002648FDF76CF9FAB204F108012348FDF7F3
:105DE00066F968462946FFF7E9FC04F109011F48F6
:105DF0009DF80820FDF75BF90A3400270AE03946D0
:105E00006846FAF7A7FE214602461848FDF74FF903
:105E100001340137029B9F42F1D3294604A8FFF7C2
:105E2000D6FC214611489DF81820FDF740F90134B1
:105E3000002509E02946FAF78DFE214602460B4867
:105E4000FDF735F901340135069B9D4204A8F1D3D5
:105E5000FAF724FD6846FAF721FD0136D8F8043038
:105E60009E42FFF67EAF09B0BDE8F08328EEFF1F2B
:105E70007FB5302404FB010101F108041E461146E0
:105E800005462046FFF798FC20463146FFF792FC76
:105E900008996846FAF786FD20466946FFF787FCB1
:105EA0006846FAF7FBFC2846FFF74CFF7FBD2DE95B
:105EB000F0470546ADF5406D002400AB18193034AD
:105EC000FFF736FCB4F5406FF7D10024264627468D
:105ED0004FF0300819E008FB075A0AF1080A50464B
:105EE000FFF77EFC8146FBF70BF981450CD900AB2F
:105EF00008FB063951464846FFF7DCFD3146484667
:105F0000FFF770FC0136013401376B689F42E2DB1A
:105F10000026302709E007FB06F101F1080000AB7D
:105F200028185918FFF7C6FD0136A642F3DB6C604E
:105F30002846FFF707FF0DF53D64ADF130052368F6
:105F400020461B68303C9847AC42F8D10DF5406DB7
:105F5000BDE8F08730B5302505FB010191B001F1B6
:105F60000805294604466846FFF728FC68462D21A7
:105F7000FAF718FEC8B9012204A86946FAF734FEF8
:105F800004A908A8FAF70EFD0CA808A9FFF7F2FC6F
:105F90000CA92846FFF728FC0CA8FAF77FFC08A8F4
:105FA000FAF77CFC04A8FAF779FC2046FFF7CAFE52
:105FB0006846FAF773FC11B030BD10B504463020C6
:105FC00000FB01400830FFF712FC2046BDE81040FE
:105FD000FFF7B8BE43683E2B10B504460DDC3022F7
:105FE00002FB03000830FFF765FD636820460133BC
:105FF0006360BDE81040FFF7A5BE10BD2DE9F04F6E
:106000008146ADF6CC4D002432AB18193034FFF781
:106010008FFBB4F5406FF7D1002107A8FAF77FFC9A
:1060200000210BA8FAF77BFC77480021FDF73CF82C
:1060300001248046002723AE13ADBBE02146724801
:10604000FDF732F8611C82466F48FDF72DF8A11C60
:1060500003466D480293FDF727F8E11C02466A48A3
:106060000392FDF721F8211D83466748FDF71CF8D0
:10607000039A029B120442EA0363184340EA0B2B83
:10608000611D6148CDF810B0FDF70EF8A11D034663
:106090005D480293FDF708F8E11D02465A48039255
:1060A000FDF702F804F1080183465748FCF7FCFFAE
:1060B000039A029B120442EA0363184340EA0B204E
:1060C000059004F109015048FCF7EEFF04F10A0CB9
:1060D0008346634600240CE019464B480293CDF8F2
:1060E0000CC0FCF7E1FF3055029BDDF80CC001331A
:1060F00001345C45F0DB314628460CEB0B04FAF723
:106100000EFC294607A8FAF758FC2846FAF7C6FB02
:1061100000213C22304600F0B9FC21463A48FCF709
:10612000C3FF04F1010C8346634600240CE01946CA
:1061300035480293CDF80CC0FCF7B6FF3055029BF2
:10614000DDF80CC0013301345C45F0DB31462846F4
:106150000CEB0B04FAF7E3FB29460BA8FAF72DFC2E
:106160002846FAF79BFB3C220021304600F08EFCCB
:1061700007A90FA8FAF716FC0BA92846FAF712FC94
:10618000059B52460FA98DE8280017A8049BFFF72E
:10619000E9FA2846FAF782FB0FA8FAF77FFB32AB41
:1061A000302000FB073017A9FFF784FC17A8FFF782
:1061B000A5FA01374745FFF641AF0024302509E035
:1061C00005FB04F101F1080032AB48445918FFF710
:1061D00071FC01344445F3DBC9F804800BA8FAF7DD
:1061E0005DFB07A8FAF75AFB0DF6984426AD236825
:1061F00020461B68303C9847AC42F8D133B00DF5CF
:10620000406DBDE8F08F00BF28EEFF1F0346084633
:10621000194600F009B800BF00210A2201F09AB91E
:1062200000220A2301F0F4B830B405460C461346A8
:1062300002202946224630BC01F0A8B970B548F2C8
:10624000183648F21835C0F20006C0F20005761B79
:10625000B61007D0043D002455F8043F0134984798
:10626000A642F9D148F2443648F21835C0F2000689
:10627000C0F20005761B02F049F8B61008D0043DC4
:10628000002455F8043F01349847A642F9D170BD67
:1062900070BD00BF4EF2BC430146C1F6FF731868E3
:1062A00000F008B84EF2BC430146C1F6FF7318680F
:1062B00001F02EBA2DE9F04F01F10B04162C83B03A
:1062C000074630D924F00704E30F8C422CBF19464F
:1062D00043F0010100292FD1384600F03DFCB4F510
:1062E000FC7F2ED24FEAD40C4EF2B056C1F6FF76A8
:1062F00006EBCC02D368934200F01182596803F197
:106300000808DA68384621F0030499681B195C68AC
:10631000CA6044F0010491605C6000F01FFC4046DC
:1063200003B0BDE8F08F002310248C422CBF194627
:1063300043F001010029CFD00C234FF000083B604F
:10634000EDE75FEA542C04BF4FEAD40C4FEA4C054A
:1063500040F08F804EF2B056C1F6FF7606EB850511
:10636000EB689D4206D10DE0002A80F25581DB6882
:106370009D4207D0596821F003010A1B0F2AF3DD63
:106380000CF1FF3C0CF1010C4EF2B0523369C1F636
:10639000FF7202F1080E734508BFD2F8049022D0B4
:1063A000586820F00300011B0F2900F384810029A5
:1063B000C2F814E0C2F810E066DAB0F5007F80F0B1
:1063C0004E81C1084FF0010802EBC100891008FAA4
:1063D00001F851688568D86048EA0109C2F804905C
:1063E0009D60EB60836001224FEAAC0302FA03F385
:1063F0004B4554D819EA030F0DD193402CF0030CF0
:1064000019EA030F0CF1040C05D15B000CF1040C2C
:1064100019EA030FF9D006EBCC09E0464846C268FA
:10642000904207D15BE1002980F28381D2689042DB
:1064300000F05581556825F00305291B0F29F2DD71
:1064400090461319D56844F0010058F8084F41F000
:10645000010C50603846C3F804C0E560AC6073615D
:106460003361C3F80CE0C3F808E0595000F076FB44
:1064700055E7BCF1040F00F2DE804FEA941C0CF1EA
:10648000380C4FEA4C0565E71A1803F1080838463E
:10649000536843F00103536000F060FB3FE7B568C9
:1064A0006B6823F0030A544504D8C4EB0A030F2B8E
:1064B00000F3A4804FF63449D6F80814C1F6FF79EA
:1064C00005EB0A020131D9F80030234408BF03F17B
:1064D000100B06D003F580530F3323F47F6323F0B2
:1064E0000F0B38465946019200F02AFD019A411CD3
:1064F000804600F06881824200F23181D9F8043090
:1065000042455B44C9F8043000F06681D6F80814AF
:106510004EF2B050C1F6FF70013117BFC2EB080256
:10652000C0F808849B18C9F8043018F007033846EF
:106530001FBFC3F10802C3F58053904403F1080262
:1065400008EB0B0308BF4FF480521B051B0DC3EB78
:10655000020B594600F0F4FC431C00F04981C8EBE3
:106560000001594441F00101D9F80430B5424FF619
:106570003442C6F808805B44C1F6FF72C8F80410C4
:10658000C9F8043018D0BAF10F0F40F20B81AAF10C
:106590000C00696820F007004FF0050C05EB000EB9
:1065A0000F2801F0010140EA01016960CEF804C042
:1065B000CEF808C000F220814FF63442D9F82C10F2
:1065C000C1F6FF72B5688B42D9F8301088BFD3622C
:1065D0004FF63442C1F6FF728B4288BF13636A687C
:1065E00022F003029442C4EB020301D80F2B05DC16
:1065F00038464FF0000800F0B1FA90E62A1943F04F
:10660000010344F0010438466C6005F1080853604A
:10661000B26000F0A3FA82E65918DA689C6838463E
:106620004D6803F1080845F00105E26094604D6093
:1066300000F094FA73E6BCF1140F9CBF0CF15B0CF4
:106640004FEA4C057FF686AEBCF1540F00F2938002
:106650004FEA143C0CF16E0C4FEA4C057AE6420A04
:10666000042A75D9142A9CBF02F15B094FEA490537
:1066700008D9542A00F2C9804FEA103909F16E098D
:106680004FEA490506EB85054EF2B058C1F6FF7892
:10669000AA68AA4279D0516821F00301884202D247
:1066A00092689542F7D1D068D6F80490D8609A6085
:1066B000D360836097E61D1941F00106556144F0EF
:1066C0000104156138465C6003F10808C5F80CE068
:1066D000C5F808E06E60695000F040FA1FE608F166
:1066E0000108083018F0030F7FF499AE4A461CF0F9
:1066F000030FA2F108010CF1FF3C00F09E8012682C
:106700008A42F4D072685B0093423FF6C8AE002B19
:106710003FF4C5AE1A4200F09580C4467BE603F113
:1067200008025B699A4208BF0CF1020C3FF42CAEE0
:10673000E4E590465519D368384658F8082F69683B
:10674000D36041F001019A60696000F007FAE6E564
:106750004FEA901909F138094FEA490592E7B54225
:106760004EF2B053C1F6FF733FF4C8AE9D686A683D
:1067700022F0030236E7BCF5AA7F19D84FEAD43CD1
:106780000CF1770C4FEA4C05E4E50125D8F804102C
:106790004FEAA909104605FA09F545EA0109C8F8C2
:1067A000049083E701234546C8F80430002219E726
:1067B00040F254539C450BD84FEA944C0CF17C0C9E
:1067C0004FEA4C05C6E5B5686A6822F0030209E79E
:1067D000FC254FF07E0CBDE51105090D00297FF465
:1067E00095AEB2680BEB0A0141F001015160E3E69E
:1067F00001214FF0000BB7E6384605F10801019280
:1068000000F086FF019A5368D6E6B2F5AA7F06D853
:106810004FEAD03909F177094FEA490532E740F2EA
:106820005451FC258A424FF07E099EBF4FEA9049A1
:1068300009F17C094FEA490524E7726822EA03025C
:10684000726060E75B0008F1040863E7032A2DE942
:10685000F00F09D82AB10023CC5CC4540133934211
:10686000FAD1BDE8F00F7047830702440ED0441CF4
:106870004D1C15F8017C04F003062346013429461B
:10688000013504F8027C002EF3D100E0034611F03C
:1068900003046DD0D71A0D1B032F2E6819DDC4F128
:1068A000040C4FEAC4081C1D4FEACC0C55F8047FB9
:1068B000C4EB0209234604310434B9F1030F26FA6C
:1068C00008FA07FA0CFB3E464BEA0A0744F8087C34
:1068D000ECDC9A42C5D901330131013211F8014C87
:1068E00001330131934203F8024CF7D1B9E70C6848
:1068F0004033403143F8404C51F83C4C43F83C4C59
:1069000051F8384C43F8384C51F8344C43F8344C77
:1069100051F8304C43F8304C51F82C4C43F82C4C87
:1069200051F8284C43F8284C51F8244C43F8244C97
:1069300051F8204C43F8204C51F81C4C43F81C4CA7
:1069400051F8184C43F8184C51F8144C43F8144CB7
:1069500051F8104C43F8104C51F80C4C43F80C4CC7
:1069600051F8084C43F8084C51F8044C43F8044CD7
:10697000D41A3F2CBBDC11E00C681033103143F803
:10698000104C51F80C4C43F80C4C51F8084C43F89F
:10699000084C51F8044C43F8044CD41A0F2CEBDC8F
:1069A000032C96DD1C1D0D1D55F8047C161B23467B
:1069B000294604340435032E44F8087CF4DC88E7C7
:1069C0008842F0B411D98C18A0420ED28518531EFB
:1069D0004AB121462A4611F8014D013BB3F1FF3F70
:1069E00002F8014DF7D1F0BC70470F2A47D941EAB0
:1069F00000039B0745D10C46034615462668103315
:106A00001034103D0F2D43F8106C54F80C6C43F803
:106A10000C6C54F8086C43F8086C54F8046C43F898
:106A2000046CEBD8A2F1100502F00F0425F00F055D
:106A30001035032C00EB0503294424D9A4F1040CE0
:106A40001D460C464FEA9C0C01EB8C07043754F8AA
:106A5000046BBC4245F8046BF9D10CF1010402F05F
:106A60000302A40009191B19002ABCD001399A1885
:106A700011F8014F03F8014B9342F9D1B3E70346F4
:106A8000F2E70346F2E72246EEE700BF032AC9B267
:106A900070B408D82AB10346121803F8011B9342B8
:106AA000FBD170BC70478307024409D0441C04F03A
:106AB0000305234604F8011C0134002DF7D100E042
:106AC0000346D51A01EB01243F2D04EB04442CDDD1
:106AD0001C604033D51A43F83C4C3F2D43F8384CEA
:106AE00043F8344C43F8304C43F82C4C43F8284CD2
:106AF00043F8244C43F8204C43F81C4C43F8184C02
:106B000043F8144C43F8104C43F80C4C43F8084C31
:106B100043F8044CDCDC08E01C601033D51A43F861
:106B20000C4C43F8084C43F8044C0F2DF4DC032DB7
:106B300008DD1D1D561B45F8044C032E2B4605F1A0
:106B40000405F7DC9A42ACD90133013203F8011C89
:106B500001339342FAD1A4E7704700BF704700BFEA
:106B60004EF2BC430A46C1F6FF730146186800F0B6
:106B700001B800BF2DE9F04F0C4683B0814617469F
:106B8000002900F01C8107F10B05FFF7E5FF54F821
:106B9000042C162DA4F1080A22F0030675D8102142
:106BA00000230D46BD4238BF43F00103002B40F0E7
:106BB0000C818E426EDA4EF2B05B0AEB0600C1F633
:106BC000FF7BDBF808E0864500F00481D0F804C0C4
:106BD0002CF001088044D8F8048018F0010F1CBF85
:106BE0009C4660466FD0D30700F1C38054F8083C40
:106BF000C3EB0A035A6822F003029219019200289B
:106C00006CD0704500F037810CEB0208884565DBDD
:106C1000C1681F468068321F242A8860C16057F807
:106C2000080FD968C160886000F27881132A9CBF80
:106C3000394620461FD921681B2A98BF04F1080055
:106C400099606168D96098BF03F1100113D9A168F8
:106C5000242A14BF04F1100004F118001961E1683E
:106C6000596111BF03F11801226903F120019A61F2
:106C700004BF6269DA6102683C460A609A4642686B
:106C80004A6082688A605A6805E025F0070529464F
:106C9000EB0F87E7B046C5EB08030F2B55D80AEB7F
:106CA000080302F0010242EA0802CAF804205A6806
:106CB00042F001025A6048462746FFF74FFF384628
:106CC00003B0BDE8F08F2CF0030C0CEB06088845F0
:106CD00089DBC3688168CB609960DCE7019A8A42EE
:106CE00047DB1F46D968321F57F8080F242AC160B6
:106CF000886000F2B180132A9CBF394620461FD914
:106D000021681B2A98BF04F1080099606168D96066
:106D100098BF03F1100113D9A168242A14BF04F10C
:106D2000100004F118001961E168596111BF03F105
:106D30001801226903F120019A6104BF6269DA61D6
:106D400002683C46DDF8048097E70AEB050102F093
:106D50000102CE18154343F00103CAF804504B60FA
:106D600048467368083143F00103736000F0D0FCBB
:106D7000A1E739464846FFF79DFA0746D8B154F8CF
:106D8000042CA0F1080122F001035344994200F0C1
:106D9000BF80321F242A6AD8132A9CBF034622468A
:106DA00039D8116819605168596092689A604846EC
:106DB000214600F0ADFC4846FFF7D0FE7FE71146C4
:106DC00003B0BDE8F04FFFF775BA0C230027C9F8F0
:106DD000003074E7DEF8043005F1100023F0030CF6
:106DE0000CEB06038342B8BF7046FFF6FCAE0AEB1D
:106DF00005025B1B43F0010348465360274654F8E5
:106E0000043CCBF8082003F001031D4344F8045C64
:106E1000FFF7A4FE53E723681B2A98BF04F108027A
:106E200003606368436098BF00F10803B9D9A368A1
:106E3000242A14BF04F1100204F118028360E368ED
:106E4000C36011BF00F11003216900F11803016153
:106E500004BF61694161A4E7214638460093FFF70A
:106E6000AFFD9DE808013C469A465A6813E7214663
:106E7000FFF7A6FD9BE7019805F110020CEB000857
:106E80009045FFF62BAF1F46D968321F57F8080F01
:106E9000242AC16088604BD8132A9CBF3A462146F9
:106EA0001FD921681B2A98BF03F1100299606168FD
:106EB000D96098BF04F1080113D9A168242A14BF2E
:106EC00003F1180203F120021961E168596111BF51
:106ED00004F11001206904F11801986104BF606990
:106EE000D8610868106048685060896891605A19D4
:106EF000C5EB080141F00101484651605968CBF8E3
:106F0000082001F001010D435D60FFF727FED6E682
:106F100050F8043C23F00308B044BCE62146384650
:106F20000093FFF74DFD009B3C469A465A68B2E637
:106F3000384621460093FFF743FD009BD7E700BF8B
:106F400038B54FF67844C1F6FF740546084600236D
:106F50002360F9F71DFF431C00D038BD2368002BC8
:106F6000FBD02B6038BD00BFC9B2F0B400294BD0B4
:106F700083070FD00378002B73D0994242D0431C73
:106F800005E013F8012B002A3BD091423AD09A0732
:106F90001846F6D1036841EA0127A3F1013247EA16
:106FA000074722EA030212F0803F1CD17B40A3F185
:106FB000013222EA030313F0803F14D1021D02E0E4
:106FC00014F0803F0FD1104652F8043BA3F1013674
:106FD00087EA030426EA0303A4F1013513F0803F96
:106FE00025EA0404ECD00378002B3AD0994209D06A
:106FF000431C01E0914205D0184613F8012B002AEA
:10700000F8D11046F0BC704781070DD00378002BF3
:10701000F8D0431C02E00278002AF3D013F0030FEB
:10702000184603F10103F6D10368A3F1013222EA05
:10703000030313F0803F0AD1021D104652F8041BCF
:10704000A1F1013424EA010111F0803FF5D0037869
:10705000002BD7D0431C184601330278002AFAD1FE
:10706000D0E71846CEE700BF80EA010212F0030F16
:1070700040F03A8010F0030220F0030021F00301F9
:1070800050F804CB08BF51F8043B0DD082F0030246
:107090004FEAC2026FF07F4323FA02F251F8043B39
:1070A0004CEA020C43EA0203ACF101329C4501BFF9
:1070B00022EA0C0212F0803F50F804CB51F8043B56
:1070C000F2D04FEA0C604FEA1C2C012828BFB0EB2D
:1070D000036F08BF1B0AF4D003F0FF034FEA1060F0
:1070E000A0EB0300704700BF10F0030F0AD010F8A8
:1070F000012B11F8013B012A28BF9A42F4D0A2EBE0
:10710000030070474DF8045D4DF8044D4FF0010247
:1071100042EA022242EA024201F0030C21F003019A
:1071200050F8044B51F8045BBCF1020F26D04BD849
:1071300024F07F4CBCEB152FA4EB020323EA0403DD
:107140000DD113EAC21308BF51F8045B0AD18CEACF
:10715000040CBCEB056F0CD150F8044BE8E74FEA88
:1071600015255CE033F07F4352D10D784FEA146C63
:1071700055E04FEA146C05F0FF0550E04FEA044C6F
:10718000A4EB02034FEA1C4C23EA0403BCEB154FAB
:1071900017D113EAC21308BF51F8045B07D18CEA78
:1071A000040CBCEB054F08D150F8044BE6E71B0478
:1071B0002ED10D884FEA144C31E04FEA05454FEAD5
:1071C000144C4FEA15452AE004F0FF0CBCEB156F98
:1071D000A4EB020323EA04030DD113EAC21308BF90
:1071E00051F8045B0AD18CEA040CBCEB052F0AD1E0
:1071F00050F8044BE8E74FEA156510E014F0FF0F74
:1072000006D051F8045B4FEA142C25F07F4506E0C8
:107210004FF000005DF8044B5DF8045B70470CF024
:10722000FF0205F0FF00012828BF904204BF4FEA8B
:107230001C2C2D0AF3D0A2EB00005DF8044B5DF886
:10724000045B704780EA0102844612F0030F4FD1BD
:1072500011F0030F32D14DF8044D11F0040F51F825
:10726000043B0BD0A3F101329A4312F0803F04BFDC
:107270004CF8043B51F8043B16D100BF51F8044BC5
:10728000A3F101329A4312F0803FA4F101320BD1F5
:107290004CF8043BA24312F0803F04BF51F8043B7A
:1072A0004CF8044BEAD023460CF8013B13F0FF0FD7
:1072B0004FEA3323F8D15DF8044B704711F0010F0A
:1072C00006D011F8012B0CF8012B002A08BF7047DB
:1072D00011F0020FBFD031F8022B12F0FF0F16BFD2
:1072E0002CF8022B8CF8002012F47F4FB3D170479A
:1072F00011F8012B0CF8012B002AF9D1704700BFBF
:1073000070B4002A45D041EA000313F0030329D1E9
:10731000032A27D905680C68A54223D1141F3AD047
:10732000A5F1013222EA050515F0803F0DD03AE0C3
:107330005B686A68A3F10135934225EA03052ED103
:10734000043C28D015F0803F27D10D460346043178
:107350000430032CECD8661E2CB91C792A79A01AAB
:1073600070BC7047561E04780A789442F7D1C6B1B3
:107370008CB101368B1C891904E08B4203F10103A7
:107380000BD044B113F8012C10F8014F9442F4D003
:10739000E5E71046E4E72046E2E70020E0E7661E66
:1073A000E1E73046DCE71846DAE700BF41EA0003D0
:1073B00013F0030F034670B425D0AAB10C78013A3C
:1073C00003F8014B4CB11C4672B111F8015F013A50
:1073D00004F8015B2346002DF6D12AB19A1800214A
:1073E00003F8011B9342FBD170BC70470E4651F865
:1073F000044BA4F1013525EA040515F0803F05D1C1
:10740000043A43F8044B032AF0D8D6E73146D4E7D0
:107410002DE9F04F4EF6C014C1F6FF7485B09946C1
:107420000B46D4F80080029103901C4614F8015BCF
:1074300008EB05012346497801F00801C9B200298B
:10744000F3D12D2D7BD02B2D05BF24460B460B46AB
:1074500014F8015B39F0100112D1D9F1010038BFE5
:107460000020302D04D058B14FF00A09CB4608E077
:10747000217801F0DF01582965D008B14FF00809E3
:10748000CB46002B59460CBF6FF000464FF000462C
:107490008DE80C003046002700F034FB30468A4669
:1074A000594600F001FABC469DE80C0016E0303D5C
:1074B000A94525DD844594BF0021012151EAD777F4
:1074C00029D15545D4BF00210121844518BF002191
:1074D00009BB0BFB0C5C012714F8015B08EB0501F1
:1074E000497801F00406F6B2002EE0D111F0030154
:1074F00006D0012914BF572137216D1AA945D9DCBF
:10750000791C0BD0C3B9604612B197B9029B1360C6
:1075100005B0BDE8F08F4FF0FF37DDE70399002B92
:107520000CBF6FF000404FF0004022230B60002A98
:10753000EED0013C0294E9E7CCF1000CE3E714F84B
:10754000015B012386E74FF010096578CB460234D2
:1075500097E700BF30B44EF2BC44C1F6FF740D464D
:10756000134601462A46206830BCFFF751BF00BFD2
:107570004EF6C013C1F6FF731B681B185B7803F04F
:107580000303012B08BF2030704700BF2DE9F041F5
:1075900048F20024C0F2000484B007462568AC6CB1
:1075A000002C42D066681F2E1ADD46F29524C0F2E8
:1075B000000424B94FF0FF3004B0BDE8F0818C2006
:1075C000039102920193FEF765FE0399029A019BD3
:1075D00004460028EED0A86C002684E84100AC6484
:1075E000DFB1D4F8886026B3D6F800816568012041
:1075F000022F05F1200C00FA05F046F8252048EA94
:10760000000246F82C3008BFD6F80431C6F8002135
:1076100004BF1843C6F8040100E06568AB1C0020F5
:107620000135656044F82310C6E705F14C04AC64ED
:10763000B8E746F29520C0F200000028BAD04FF417
:107640008470039102920193FEF724FE0399029A3B
:10765000019B06460028ADD00020C6F80001C6F800
:1076600004018046C4F88860C0E700BFF8B54EF258
:10767000B054C1F6FF740F460546FFF76DFAA368D4
:107680005E6826F0030606F6EF73DF1B3F0B013F33
:107690003F03B7F5805F07DB00212846FFF750FC6A
:1076A000A3689B19984204D02846FFF757FA002098
:1076B000F8BD79422846FFF743FC013010D04FF661
:1076C0003843A168C1F6FF73F61B284646F0010651
:1076D0001A684E60D71B1F60FFF740FA0120F8BD03
:1076E00000212846FFF72CFCA368C21A0F2ADBDD15
:1076F0004EF6B8144FF63841C1F6FF74C1F6FF716B
:1077000042F001025A602368C01A0860CCE700BF4B
:107710002DE9F0410E46804600295CD0FFF71CFAA7
:107720004EF2B05556F8041CC1F6FF75A6F10804D8
:1077300021F00103AF68E2189742506820F003007F
:1077400067D011F00101506035D00021161876681D
:1077500016F0010F06D11B18906800294DD0D26891
:10776000C260906043F00102E3506260F1B9B3F58A
:10777000007F32D35A0A042A6CD898093830410065
:1077800005EB81054EF2B051C1F6FF71AA68AA421D
:107790006BD0516821F003018B4202D2926895426E
:1077A000F7D1D368E360A260D4609C604046BDE836
:1077B000F041FFF7D3B956F8086C05F1080CA41B8B
:1077C0009B19A668664543D0D4F80CC0C6F80CC017
:1077D000CCF80860BAE7BDE8F081DB0801216868F1
:1077E00005EBC3029B1001FA03F3E26091681843B2
:1077F0006860A160CC609460D8E7294EB042AED1F9
:107800006C6143F001022C61E060A0606260E350B3
:10781000CCE7C018CB0707D456F8083CE41AC018C8
:10782000A268E368D3609A604EF6BC1240F0010390
:10783000C1F6FF726360AC6013689842B6D34FF62E
:1078400034434046C1F6FF731968FFF70FFFADE7F9
:1078500001217BE702F15B004100142A90D9542AF0
:107860000CD8180B6E3041008AE701264D68801055
:10787000134606FA00F005434D6093E7B2F5AA7F80
:1078800003D8D80B773041007AE740F254518A424E
:1078900003D8980C7C30410072E7FC217E206FE712
:1078A000B8E5FF1FFFFFFFFF4A1E08BF7047C0F08B
:1078B0002481884240F21681114200F01781B0FA0B
:1078C00080F3B1FA81F2A2EB0303C3F11F0304A218
:1078D00002EB03134FF000029F4600BFAFF300809E
:1078E000B0EBC17F00BF42EB020228BFA0EBC1702A
:1078F000B0EB817F00BF42EB020228BFA0EB81709A
:10790000B0EB417F00BF42EB020228BFA0EB417009
:10791000B0EB017F00BF42EB020228BFA0EB017079
:10792000B0EBC16F00BF42EB020228BFA0EBC16009
:10793000B0EB816F00BF42EB020228BFA0EB816079
:10794000B0EB416F00BF42EB020228BFA0EB4160E9
:10795000B0EB016F00BF42EB020228BFA0EB016059
:10796000B0EBC15F00BF42EB020228BFA0EBC150E9
:10797000B0EB815F00BF42EB020228BFA0EB815059
:10798000B0EB415F00BF42EB020228BFA0EB4150C9
:10799000B0EB015F00BF42EB020228BFA0EB015039
:1079A000B0EBC14F00BF42EB020228BFA0EBC140C9
:1079B000B0EB814F00BF42EB020228BFA0EB814039
:1079C000B0EB414F00BF42EB020228BFA0EB4140A9
:1079D000B0EB014F00BF42EB020228BFA0EB014019
:1079E000B0EBC13F00BF42EB020228BFA0EBC130A9
:1079F000B0EB813F00BF42EB020228BFA0EB813019
:107A0000B0EB413F00BF42EB020228BFA0EB413088
:107A1000B0EB013F00BF42EB020228BFA0EB0130F8
:107A2000B0EBC12F00BF42EB020228BFA0EBC12088
:107A3000B0EB812F00BF42EB020228BFA0EB8120F8
:107A4000B0EB412F00BF42EB020228BFA0EB412068
:107A5000B0EB012F00BF42EB020228BFA0EB0120D8
:107A6000B0EBC11F00BF42EB020228BFA0EBC11068
:107A7000B0EB811F00BF42EB020228BFA0EB8110D8
:107A8000B0EB411F00BF42EB020228BFA0EB411048
:107A9000B0EB011F00BF42EB020228BFA0EB0110B8
:107AA000B0EBC10F00BF42EB020228BFA0EBC10048
:107AB000B0EB810F00BF42EB020228BFA0EB8100B8
:107AC000B0EB410F00BF42EB020228BFA0EB410028
:107AD000B0EB010F00BF42EB020228BFA0EB010098
:107AE000104670470CBF012000207047B1FA81F2A8
:107AF000C2F11F0220FA02F0704708B14FF0FF30C8
:107B000000F00EB80029F8D02DE90340FFF7CCFEB5
:107B1000BDE8064002FB00F3A1EB0301704700BF84
:107B2000704700BFFFFFFFFF0000000000000000E3
:107B3000E9040000D904000001050000F904000078
:107B4000FD040000F504000000000000000000003B
:107B50003105000021050000490500004105000035
:107B6000450500003D050000000000000000000089
:107B700079050000690500009105000089050000F5
:107B80008D050000850500000000000000000000D9
:107B9000B1050000000000000D0A6FF07F030370C4
:107BA000037813F0800FFBD07047FFFF4008FE43BF
:107BB00040A004404408FE4344A004400018FE4393
:107BC00000C004403000FE43309004403400FE43C7
:107BD000349004401C18FE431CC004401018FE439F
:107BE00010C004400818FE4308C004400C18FE43AF
:107BF0000CC004400C10FE430CB004401010FE43B7
:107C000010B004401810FE4318B004401C10FE438E
:107C10001CB004401410FE4314B004400418FE438A
:107C200004C004400010FE4300B004400008FE43BE
:107C300000A004400408FE4304A004400C08FE43D6
:107C40000CA004400808FE4308A004401418FE439A
:107C500014C004401818FE4318C004400410FE432A
:107C600004B004400810FE4308B004401400FE4372
:107C7000149004404C08FE434CA004400420FE43F2
:107C800004D004402410FE4324B004402010FE43DE
:107C900020B004402810FE4328B004402C10FE43BE
:107CA0002CB004400020FE4300D004404808FE43AE
:107CB00048A004401000FE43109004400015191520
:107CC000000100000DE4FF1F120000000002000090
:107CD00038E4FF1F430000000003000092E4FF1F90
:107CE000000000000103090420E4FF1F0000000061
:107CF000020309047CE4FF1F0000000003030904E1
:107D000096E4FF1F000000000000000000000000DB
:107D100000000000FFFFFFFF000000000000000067
:107D2000352300002D2300004723000043230000DB
:107D30003F2300003B230000000000000000000083
:107D400031260000CD2600006D26000081260000AF
:107D5000A9260000692600001F1C1F1E1F1E1F1FD2
:107D60001E1F1E1FFFFFFFFF00000000000000009D
:107D7000BD300000C930000000000000000000001D
:107D8000E5320000F13200002F00646973704C6F1F
:107D90006720746F6F6B3A2000206D73003078009D
:107DA0004C6F636B696E6720446F6F722E2E0044B8
:107DB0006F6F72206973206F70656E004C6F636B1C
:107DC000696E6720446F6F7220284E6F204C6F677A
:107DD000292E2E00446F6F72206973206F70656EBC
:107DE000206F7220756E6C6F636B656400556E6CEE
:107DF0006F636B696E6720646F6F722E2E00436F26
:107E00006D6D616E642073656E7420627920736598
:107E10007269616C00436F6D6D616E642073656E95
:107E200074206279207769666900617400617472F8
:107E30007373693F2C30002B2B2B0061746D640031
:107E4000617464680061746463006174706C652CB3
:107E50003000646F6F726F70656E656400646F6F81
:107E600072636C6F73656400436865636B696E670A
:107E700020666F7220004C6F672049442077617341
:107E800020002C2000416C6961733A200054455356
:107E900054494E47005355434345535300444953B7
:107EA000434F4E4E45435400425449440073657459
:107EB00074696D6500646973616C6C6F77007072D2
:107EC000696E7475736572696E666F00756E636F47
:107ED0006E6669726D6564757365723F002D00652D
:107EE00064697475736572006E6577757365720089
:107EF00061646A7573746175746F6C6F636B6465CC
:107F00006C617900616C6C6F7775736572006C6F72
:107F1000676E6F7700646973706C61796C6F67006E
:107F2000636C6561726C6F670074696D653F0050CA
:107F300041495245440042547374617475733F0063
:107F4000425420697320636F6E6E656374656400CC
:107F5000425420697320446973636F6E6E65637465
:107F6000656400425420697320696E204461746125
:107F7000204D6F646500425420697320696E204370
:107F80006F6D6D616E64204D6F64650042542069B1
:107F90007320506169726564004254206973206ED9
:107FA0006F74205061697265640043757272656E0A
:107FB00074204254207573657249443A2000706100
:107FC00069726E657874425400646F6F7273746185
:107FD0007475733F00446F6F7220697320636C6F18
:107FE00073656400446F6F72206973206C6F636BFC
:107FF000656400446F6F7220697320756E6C6F63E7
:108000006B656400425473656E6400746F67676CDF
:10801000654C6564005749464973656E6400736535
:108020006E64696E670067657452535349004F4B25
:1080300000636D6F646500646D6F646500646F6FED
:10804000726C6F636B00646F6F72756E6C6F636BD5
:1080500000636C6561722100525353493A2000500D
:10806000726F6772616D205374617274004469733A
:10807000636F6E6E656374696E672E2E004E756D4C
:10808000626572206F6620656E747269657320691F
:108090006E206C6F673A20004B65792050726573D3
:1080A0007365643A20004B6579732063757272655D
:1080B0006E746C7920656E74657265643A20005543
:1080C0006E6964656E746966696564204254204413
:1080D00065766963650054686973205061697265EB
:1080E0006420646576696365206973206E6F74200F
:1080F000636F6E6669726D656420616E64206E6F79
:108100007420696E207468652075736572206C69CF
:1081100073743A00416464696E67206E6577205518
:108120007365722E2E006375727242547573657298
:108130003A200053455249414C0053657269616CC5
:1081400041646D696E005749464900576966694147
:10815000646D696E004142434445004B657970612E
:108160006448617264436F6465310042546E6F41CC
:108170005050004254646576696365776974686F2E
:108180007574415050004E4F414C49415300FFFF20
:108190000000000000000000FD5600001D57000018
:1081A0000000000000000000F95700002158000006
:1081B0006C6173740055736572206E756D626572C3
:1081C0003A2000557365722049443A20004C6F678D
:1081D0002049443A2000416C6C6F776564207469D3
:1081E0006D652053746172743A2000416C6C6F7736
:1081F00065642074696D6520456E643A2000FFFF58
:10820000C0E4FF1F43000000002020202020202089
:108210002020282828282820202020202020202036
:108220002020202020202020208810101010101046
:108230001010101010101010100404040404040492
:10824000040404101010101010104141414141412C
:10825000010101010101010101010101010101010E
:10826000010101011010101010104242424242421E
:1082700002020202020202020202020202020202DE
:108280000202020210101010200000000000000086
:1082900000000000000000000000000000000000DE
:1082A00000000000000000000000000000000000CE
:1082B00000000000000000000000000000000000BE
:1082C00000000000000000000000000000000000AE
:1082D000000000000000000000000000000000009E
:1082E000000000000000000000000000000000008E
:1082F000000000000000000000000000000000007E
:10830000000000000000000000000000F8B500BF01
:10831000F8BC08BC9E4670479904000005050000A3
:108320004D05000095050000F505000081080000DE
:108330004D230000A92A0000852D0000B730000061
:04834000C95400001C
:10834400000000000A0400007CFCFF1F081201006A
:108354000202000040C01683040001010203010070
:1083640018035400650065006E0073007900640012
:10837400750069006E006F0009024300020100C02D
:108384003209040000010202010005240010010565
:1083940024010101042402060524060001070582C4
:1083A4000310004009040100020A0000000705034D
:1083B4000240000007058402400000001603550037
:1083C4005300420020005300650072006900610000
:1083D4006C00040309040C0300000000000000000A
:1083E400000000000000000000000000FFFFFFFF8D
:1083F4002C0100001E00000001000000C0E4FF1F6B
:108404000000000000000000000000000000000068
:108414000000000000000000000000000000000058
:1084240004820000000000000000000000000000C2
:108434000000000000000000000000000000000038
:108444000000000000000000000000000000000028
:108454000000000000000000000000000000000018
:108464000000000000000000000000000000000008
:1084740000000000000000000000000000000000F8
:1084840000000000000000000000000000000000E8
:1084940000000000000000000000000000000000D8
:1084A40000000000000000000000000000000000C8
:1084B40000000000000000000000000000000000B8
:1084C40000000000000000000000000000000000A8
:1084D4000000000000000000000000000000000098
:1084E4000000000000000000000000000000000088
:1084F4000000000000000000B0E5FF1FB0E5FF1F12
:10850400B8E5FF1FB8E5FF1FC0E5FF1FC0E5FF1F6B
:10851400C8E5FF1FC8E5FF1FD0E5FF1FD0E5FF1F1B
:10852400D8E5FF1FD8E5FF1FE0E5FF1FE0E5FF1FCB
:10853400E8E5FF1FE8E5FF1FF0E5FF1FF0E5FF1F7B
:10854400F8E5FF1FF8E5FF1F00E6FF1F00E6FF1F29
:1085540008E6FF1F08E6FF1F10E6FF1F10E6FF1FD7
:1085640018E6FF1F18E6FF1F20E6FF1F20E6FF1F87
:1085740028E6FF1F28E6FF1F30E6FF1F30E6FF1F37
:1085840038E6FF1F38E6FF1F40E6FF1F40E6FF1FE7
:1085940048E6FF1F48E6FF1F50E6FF1F50E6FF1F97
:1085A40058E6FF1F58E6FF1F60E6FF1F60E6FF1F47
:1085B40068E6FF1F68E6FF1F70E6FF1F70E6FF1FF7
:1085C40078E6FF1F78E6FF1F80E6FF1F80E6FF1FA7
:1085D40088E6FF1F88E6FF1F90E6FF1F90E6FF1F57
:1085E40098E6FF1F98E6FF1FA0E6FF1FA0E6FF1F07
:1085F400A8E6FF1FA8E6FF1FB0E6FF1FB0E6FF1FB7
:10860400B8E6FF1FB8E6FF1FC0E6FF1FC0E6FF1F66
:10861400C8E6FF1FC8E6FF1FD0E6FF1FD0E6FF1F16
:10862400D8E6FF1FD8E6FF1FE0E6FF1FE0E6FF1FC6
:10863400E8E6FF1FE8E6FF1FF0E6FF1FF0E6FF1F76
:10864400F8E6FF1FF8E6FF1F00E7FF1F00E7FF1F24
:1086540008E7FF1F08E7FF1F10E7FF1F10E7FF1FD2
:1086640018E7FF1F18E7FF1F20E7FF1F20E7FF1F82
:1086740028E7FF1F28E7FF1F30E7FF1F30E7FF1F32
:1086840038E7FF1F38E7FF1F40E7FF1F40E7FF1FE2
:1086940048E7FF1F48E7FF1F50E7FF1F50E7FF1F92
:1086A40058E7FF1F58E7FF1F60E7FF1F60E7FF1F42
:1086B40068E7FF1F68E7FF1F70E7FF1F70E7FF1FF2
:1086C40078E7FF1F78E7FF1F80E7FF1F80E7FF1FA2
:1086D40088E7FF1F88E7FF1F90E7FF1F90E7FF1F52
:1086E40098E7FF1F98E7FF1FA0E7FF1FA0E7FF1F02
:1086F400A8E7FF1FA8E7FF1FB0E7FF1FB0E7FF1FB2
:10870400B8E7FF1FB8E7FF1FC0E7FF1FC0E7FF1F61
:10871400C8E7FF1FC8E7FF1FD0E7FF1FD0E7FF1F11
:10872400D8E7FF1FD8E7FF1FE0E7FF1FE0E7FF1FC1
:10873400E8E7FF1FE8E7FF1FF0E7FF1FF0E7FF1F71
:10874400F8E7FF1FF8E7FF1F00E8FF1F00E8FF1F1F
:1087540008E8FF1F08E8FF1F10E8FF1F10E8FF1FCD
:1087640018E8FF1F18E8FF1F20E8FF1F20E8FF1F7D
:1087740028E8FF1F28E8FF1F30E8FF1F30E8FF1F2D
:1087840038E8FF1F38E8FF1F40E8FF1F40E8FF1FDD
:1087940048E8FF1F48E8FF1F50E8FF1F50E8FF1F8D
:1087A40058E8FF1F58E8FF1F60E8FF1F60E8FF1F3D
:1087B40068E8FF1F68E8FF1F70E8FF1F70E8FF1FED
:1087C40078E8FF1F78E8FF1F80E8FF1F80E8FF1F9D
:1087D40088E8FF1F88E8FF1F90E8FF1F90E8FF1F4D
:1087E40098E8FF1F98E8FF1FA0E8FF1FA0E8FF1FFD
:1087F400A8E8FF1FA8E8FF1FB0E8FF1FB0E8FF1FAD
:10880400B8E8FF1FB8E8FF1FC0E8FF1FC0E8FF1F5C
:10881400C8E8FF1FC8E8FF1FD0E8FF1FD0E8FF1F0C
:10882400D8E8FF1FD8E8FF1FE0E8FF1FE0E8FF1FBC
:10883400E8E8FF1FE8E8FF1FF0E8FF1FF0E8FF1F6C
:10884400F8E8FF1FF8E8FF1F00E9FF1F00E9FF1F1A
:1088540008E9FF1F08E9FF1F10E9FF1F10E9FF1FC8
:1088640018E9FF1F18E9FF1F20E9FF1F20E9FF1F78
:1088740028E9FF1F28E9FF1F30E9FF1F30E9FF1F28
:1088840038E9FF1F38E9FF1F40E9FF1F40E9FF1FD8
:1088940048E9FF1F48E9FF1F50E9FF1F50E9FF1F88
:1088A40058E9FF1F58E9FF1F60E9FF1F60E9FF1F38
:1088B40068E9FF1F68E9FF1F70E9FF1F70E9FF1FE8
:1088C40078E9FF1F78E9FF1F80E9FF1F80E9FF1F98
:1088D40088E9FF1F88E9FF1F90E9FF1F90E9FF1F48
:1088E40098E9FF1F98E9FF1FA0E9FF1FA0E9FF1FF8
:1088F400A8E9FF1FA8E9FF1FFFFFFFFF0000020018
:0489040008820000E5
:00000001FF
